{
  "_format": "hh-sol-artifact-1",
  "contractName": "FOMOInsurance",
  "sourceName": "contracts/FOMOInsurance.sol",
  "abi": [
    {
      "inputs": [
        {
          "internalType": "address",
          "name": "_policyStorage",
          "type": "address"
        },
        {
          "internalType": "address",
          "name": "_policyManager",
          "type": "address"
        },
        {
          "internalType": "address",
          "name": "_settlementEngine",
          "type": "address"
        },
        {
          "internalType": "address",
          "name": "_priceOracle",
          "type": "address"
        },
        {
          "internalType": "address",
          "name": "_feeRecipient",
          "type": "address"
        }
      ],
      "stateMutability": "nonpayable",
      "type": "constructor"
    },
    {
      "inputs": [],
      "name": "InsufficientBalance",
      "type": "error"
    },
    {
      "inputs": [],
      "name": "InvalidAddress",
      "type": "error"
    },
    {
      "anonymous": false,
      "inputs": [
        {
          "indexed": false,
          "internalType": "address",
          "name": "policyStorage",
          "type": "address"
        },
        {
          "indexed": false,
          "internalType": "address",
          "name": "policyManager",
          "type": "address"
        },
        {
          "indexed": false,
          "internalType": "address",
          "name": "settlementEngine",
          "type": "address"
        },
        {
          "indexed": false,
          "internalType": "address",
          "name": "priceOracle",
          "type": "address"
        }
      ],
      "name": "ContractsInitialized",
      "type": "event"
    },
    {
      "anonymous": false,
      "inputs": [
        {
          "indexed": true,
          "internalType": "address",
          "name": "token",
          "type": "address"
        },
        {
          "indexed": false,
          "internalType": "uint256",
          "name": "amount",
          "type": "uint256"
        }
      ],
      "name": "EmergencyWithdrawal",
      "type": "event"
    },
    {
      "anonymous": false,
      "inputs": [
        {
          "indexed": true,
          "internalType": "address",
          "name": "newRecipient",
          "type": "address"
        }
      ],
      "name": "FeeRecipientUpdated",
      "type": "event"
    },
    {
      "anonymous": false,
      "inputs": [
        {
          "indexed": true,
          "internalType": "address",
          "name": "token",
          "type": "address"
        },
        {
          "indexed": true,
          "internalType": "address",
          "name": "recipient",
          "type": "address"
        },
        {
          "indexed": false,
          "internalType": "uint256",
          "name": "amount",
          "type": "uint256"
        }
      ],
      "name": "FeesWithdrawn",
      "type": "event"
    },
    {
      "anonymous": false,
      "inputs": [
        {
          "indexed": true,
          "internalType": "address",
          "name": "previousOwner",
          "type": "address"
        },
        {
          "indexed": true,
          "internalType": "address",
          "name": "newOwner",
          "type": "address"
        }
      ],
      "name": "OwnershipTransferred",
      "type": "event"
    },
    {
      "anonymous": false,
      "inputs": [
        {
          "indexed": false,
          "internalType": "address",
          "name": "account",
          "type": "address"
        }
      ],
      "name": "Paused",
      "type": "event"
    },
    {
      "anonymous": false,
      "inputs": [
        {
          "indexed": false,
          "internalType": "address",
          "name": "account",
          "type": "address"
        }
      ],
      "name": "Unpaused",
      "type": "event"
    },
    {
      "inputs": [
        {
          "internalType": "contract IERC20",
          "name": "token",
          "type": "address"
        },
        {
          "internalType": "uint256",
          "name": "amount",
          "type": "uint256"
        }
      ],
      "name": "collectFees",
      "outputs": [],
      "stateMutability": "nonpayable",
      "type": "function"
    },
    {
      "inputs": [
        {
          "internalType": "contract IERC20",
          "name": "token",
          "type": "address"
        },
        {
          "internalType": "uint256",
          "name": "amount",
          "type": "uint256"
        }
      ],
      "name": "emergencyWithdraw",
      "outputs": [],
      "stateMutability": "nonpayable",
      "type": "function"
    },
    {
      "inputs": [],
      "name": "feeRecipient",
      "outputs": [
        {
          "internalType": "address",
          "name": "",
          "type": "address"
        }
      ],
      "stateMutability": "view",
      "type": "function"
    },
    {
      "inputs": [
        {
          "internalType": "address",
          "name": "",
          "type": "address"
        }
      ],
      "name": "feesCollected",
      "outputs": [
        {
          "internalType": "uint256",
          "name": "",
          "type": "uint256"
        }
      ],
      "stateMutability": "view",
      "type": "function"
    },
    {
      "inputs": [
        {
          "internalType": "uint256",
          "name": "policyId",
          "type": "uint256"
        }
      ],
      "name": "getPolicyDetails",
      "outputs": [
        {
          "components": [
            {
              "internalType": "address",
              "name": "seller",
              "type": "address"
            },
            {
              "internalType": "address",
              "name": "buyer",
              "type": "address"
            },
            {
              "internalType": "contract IERC20",
              "name": "token",
              "type": "address"
            },
            {
              "internalType": "string",
              "name": "tokenSymbol",
              "type": "string"
            },
            {
              "internalType": "uint256",
              "name": "amount",
              "type": "uint256"
            },
            {
              "internalType": "contract IERC20",
              "name": "payoutToken",
              "type": "address"
            },
            {
              "internalType": "uint256",
              "name": "payoutAmount",
              "type": "uint256"
            },
            {
              "internalType": "uint256",
              "name": "duration",
              "type": "uint256"
            },
            {
              "internalType": "uint16",
              "name": "upsideShareBps",
              "type": "uint16"
            },
            {
              "internalType": "uint256",
              "name": "entryPrice",
              "type": "uint256"
            },
            {
              "internalType": "uint256",
              "name": "startTimestamp",
              "type": "uint256"
            },
            {
              "internalType": "uint256",
              "name": "expiryTimestamp",
              "type": "uint256"
            },
            {
              "internalType": "enum IPolicyStorage.PolicyState",
              "name": "state",
              "type": "uint8"
            }
          ],
          "internalType": "struct IPolicyStorage.Policy",
          "name": "policy",
          "type": "tuple"
        },
        {
          "internalType": "uint256",
          "name": "currentPrice",
          "type": "uint256"
        },
        {
          "internalType": "uint256",
          "name": "timeRemaining",
          "type": "uint256"
        },
        {
          "internalType": "uint256",
          "name": "potentialSellerPayout",
          "type": "uint256"
        },
        {
          "internalType": "uint256",
          "name": "potentialBuyerPayout",
          "type": "uint256"
        },
        {
          "internalType": "bool",
          "name": "canSettle",
          "type": "bool"
        }
      ],
      "stateMutability": "view",
      "type": "function"
    },
    {
      "inputs": [],
      "name": "getProtocolStats",
      "outputs": [
        {
          "internalType": "uint256",
          "name": "totalOpenPolicies",
          "type": "uint256"
        },
        {
          "internalType": "uint256",
          "name": "totalPoliciesCreated",
          "type": "uint256"
        },
        {
          "internalType": "bool",
          "name": "oracleHealthy",
          "type": "bool"
        }
      ],
      "stateMutability": "view",
      "type": "function"
    },
    {
      "inputs": [],
      "name": "owner",
      "outputs": [
        {
          "internalType": "address",
          "name": "",
          "type": "address"
        }
      ],
      "stateMutability": "view",
      "type": "function"
    },
    {
      "inputs": [],
      "name": "pauseAll",
      "outputs": [],
      "stateMutability": "nonpayable",
      "type": "function"
    },
    {
      "inputs": [],
      "name": "paused",
      "outputs": [
        {
          "internalType": "bool",
          "name": "",
          "type": "bool"
        }
      ],
      "stateMutability": "view",
      "type": "function"
    },
    {
      "inputs": [],
      "name": "policyManager",
      "outputs": [
        {
          "internalType": "contract IPolicyManager",
          "name": "",
          "type": "address"
        }
      ],
      "stateMutability": "view",
      "type": "function"
    },
    {
      "inputs": [],
      "name": "policyStorage",
      "outputs": [
        {
          "internalType": "contract IPolicyStorage",
          "name": "",
          "type": "address"
        }
      ],
      "stateMutability": "view",
      "type": "function"
    },
    {
      "inputs": [],
      "name": "priceOracle",
      "outputs": [
        {
          "internalType": "contract IPriceOracle",
          "name": "",
          "type": "address"
        }
      ],
      "stateMutability": "view",
      "type": "function"
    },
    {
      "inputs": [],
      "name": "renounceOwnership",
      "outputs": [],
      "stateMutability": "nonpayable",
      "type": "function"
    },
    {
      "inputs": [
        {
          "internalType": "address",
          "name": "newFeeRecipient",
          "type": "address"
        }
      ],
      "name": "setFeeRecipient",
      "outputs": [],
      "stateMutability": "nonpayable",
      "type": "function"
    },
    {
      "inputs": [],
      "name": "settlementEngine",
      "outputs": [
        {
          "internalType": "contract ISettlementEngine",
          "name": "",
          "type": "address"
        }
      ],
      "stateMutability": "view",
      "type": "function"
    },
    {
      "inputs": [
        {
          "internalType": "address",
          "name": "newOwner",
          "type": "address"
        }
      ],
      "name": "transferOwnership",
      "outputs": [],
      "stateMutability": "nonpayable",
      "type": "function"
    },
    {
      "inputs": [],
      "name": "unpauseAll",
      "outputs": [],
      "stateMutability": "nonpayable",
      "type": "function"
    },
    {
      "inputs": [
        {
          "internalType": "contract IERC20",
          "name": "token",
          "type": "address"
        },
        {
          "internalType": "uint256",
          "name": "amount",
          "type": "uint256"
        }
      ],
      "name": "withdrawFees",
      "outputs": [],
      "stateMutability": "nonpayable",
      "type": "function"
    }
  ],
  "bytecode": "0x6101003461030357601f61184538819003918201601f19168301916001600160401b038311848410176103085780849260a094604052833981010312610303576100488161031e565b906100556020820161031e565b6100616040830161031e565b9261007a60806100736060860161031e565b940161031e565b90600160005560ff196001541660015561009333610332565b6001600160a01b03169182156102be576001600160a01b0316938415610279576001600160a01b0316928315610234576001600160a01b03169081156101ef576001600160a01b03169283156101aa577f2342d2a46d980e1b4e7571e23ad8c97dc6a4566ca73495d4c871b1c46d4360a2946080948486528160a0528260c0528360e05260018060a01b0319600254161760025561013033610332565b604051938452602084015260408301526060820152a16040516114b6908161038f823960805181818161039501528181610d200152610fce015260a051818181610982015281816109bf0152610cb6015260c0518181816102c5015261048a015260e05181818161041801528181610d9501526110d60152f35b60405162461bcd60e51b815260206004820152601560248201527f496e76616c69642066656520726563697069656e7400000000000000000000006044820152606490fd5b60405162461bcd60e51b815260206004820152601660248201527f496e76616c6964206f7261636c652061646472657373000000000000000000006044820152606490fd5b60405162461bcd60e51b815260206004820152601a60248201527f496e76616c696420736574746c656d656e7420616464726573730000000000006044820152606490fd5b60405162461bcd60e51b815260206004820152601760248201527f496e76616c6964206d616e6167657220616464726573730000000000000000006044820152606490fd5b60405162461bcd60e51b815260206004820152601760248201527f496e76616c69642073746f7261676520616464726573730000000000000000006044820152606490fd5b600080fd5b634e487b7160e01b600052604160045260246000fd5b51906001600160a01b038216820361030357565b60018054610100600160a81b03198116600884811b610100600160a81b0316919091179092556001600160a01b0392831692911c167f8be0079c531659141344cd1fd0a4f28419497f9722a3daafe3b4186f6b6457e0600080a356fe608080604052600436101561001357600080fd5b60003560e01c9081632630c12f146110b8575080634690484014611091578063595c6a6714610ff2578063599fe9ec14610fae5780635b2478ea14610f715780635c975abb14610f4e578063715018a614610ee2578063771aceef14610c6f5780638a2ddd0314610bd35780638da5cb5b14610ba957806395ccea6714610ab8578063a033fcd4146109a6578063ab3dbf3b14610962578063ad3b1b4714610896578063cc038010146102e9578063e6d0919d146102a5578063e74b981b146101f75763f2fde38b146100e557600080fd5b346101f25760203660031901126101f2576004356001600160a01b038116908181036101f257610113611212565b8115610188576001600160a01b039074ffffffffffffffffffffffffffffffffffffffff006001549160081b1674ffffffffffffffffffffffffffffffffffffffff001982161760015560081c167f8be0079c531659141344cd1fd0a4f28419497f9722a3daafe3b4186f6b6457e0600080a3005b608460405162461bcd60e51b815260206004820152602660248201527f4f776e61626c653a206e6577206f776e657220697320746865207a65726f206160448201527f64647265737300000000000000000000000000000000000000000000000000006064820152fd5b600080fd5b346101f25760203660031901126101f2576004356001600160a01b0381168091036101f257610224611212565b801561027b57807fffffffffffffffffffffffff000000000000000000000000000000000000000060025416176002557f7a7b5a0a132f9e0581eb8527f66eae9ee89c2a3e79d4ac7e41a1f1f4d48a7fc2600080a2005b7fe6c4247b0000000000000000000000000000000000000000000000000000000060005260046000fd5b346101f25760003660031901126101f25760206040516001600160a01b037f0000000000000000000000000000000000000000000000000000000000000000168152f35b346101f25760203660031901126101f25760043560008061018060405161030f81611168565b8281528260208201528260408201526060808201528260808201528260a08201528260c08201528260e08201528261010082015282610120820152826101408201528261016082015201526040517f2b07fce300000000000000000000000000000000000000000000000000000000815282600482015281816024816001600160a01b037f0000000000000000000000000000000000000000000000000000000000000000165afa90811561088b578291610720575b5061040c606082019260208451604051809481927f524f38890000000000000000000000000000000000000000000000000000000083528460048401526024830190611143565b03816001600160a01b037f0000000000000000000000000000000000000000000000000000000000000000165afa909182826106e6575b50506106e1575060005b61018082019384519460048610156106cb57600160009614806106bd575b156106b75761048061016085015142906111bd565b6001600160a01b037f00000000000000000000000000000000000000000000000000000000000000001693604051927f0fa2e23c000000000000000000000000000000000000000000000000000000008452846004850152604084602481895afa94851561066c5789948a96610677575b506020906024604051809981937fdf69433b00000000000000000000000000000000000000000000000000000000835260048301525afa95861561066c57899661063b575b506101606105916040519960c08b526001600160a01b038a511660c08c01526001600160a01b0360208b01511660e08c01526001600160a01b0360408b0151166101008c0152516101a06101208c01526102608b0190611143565b9760808101516101408b01526001600160a01b0360a082015116828b015260c08101516101808b015260e08101516101a08b015261ffff610100820151166101c08b01526101208101516101e08b01526101408101516102008b01520151610220890152516004811015610627578798506102408801526020870152604086015260608501526080840152151560a08301520390f35b602489634e487b7160e01b81526021600452fd5b61065e91965060203d602011610665575b610656818361119b565b8101906111ca565b9489610536565b503d61064c565b6040513d8b823e3d90fd5b945094506040843d6040116106af575b816106946040938361119b565b810103126106ab57602080855195015195906104f1565b8880fd5b3d9150610687565b85610480565b50610160840151421061046b565b634e487b7160e01b600052602160045260246000fd5b61044d565b909192506020823d602011610718575b816107036020938361119b565b81010312610715575051908580610443565b80fd5b3d91506106f6565b90503d8083833e610731818361119b565b81019060208183031261087b5780519067ffffffffffffffff821161087f57016101a08183031261087b576040519161076983611168565b610772826111e2565b8352610780602083016111e2565b6020840152610791604083016111e2565b6040840152606082015167ffffffffffffffff811161088757820181601f82011215610887578051906107c3826111f6565b926107d1604051948561119b565b8284526020838301011161088357906107f09160208085019101611120565b60608301526080810151608083015261080b60a082016111e2565b60a083015260c081015160c083015260e081015160e083015261010081015161ffff8116810361087f5790610180916101008401526101208101516101208401526101408101516101408401526101608101516101608401520151600481101561087b57610180820152836103c5565b8280fd5b8380fd5b8580fd5b8480fd5b6040513d84823e3d90fd5b346101f2576108a4366110fa565b906108ad611212565b6001600160a01b03811690816000526003602052604060002054831161093857826108ff9183600052600360205260406000206108eb8382546111bd565b90556001600160a01b03600254169061126d565b7f5e110f8bc8a20b65dcc87f224bdf1cc039346e267118bae2739847f07321ffa860206001600160a01b036002541693604051908152a3005b7ff4d678b80000000000000000000000000000000000000000000000000000000060005260046000fd5b346101f25760003660031901126101f25760206040516001600160a01b037f0000000000000000000000000000000000000000000000000000000000000000168152f35b346101f2576109b4366110fa565b906001600160a01b037f0000000000000000000000000000000000000000000000000000000000000000163303610a74576001600160a01b0390610a416040517f23b872dd00000000000000000000000000000000000000000000000000000000602082015233602482015230604482015284606482015260648152610a3b60848261119b565b826112c4565b16600052600360205260406000208054918201809211610a5e5755005b634e487b7160e01b600052601160045260246000fd5b606460405162461bcd60e51b815260206004820152601360248201527f4f6e6c7920706f6c696379206d616e61676572000000000000000000000000006044820152fd5b346101f257610ac6366110fa565b610ace611212565b6001600160a01b038216916040517f70a08231000000000000000000000000000000000000000000000000000000008152306004820152602081602481875afa908115610b9d57600091610b6b575b5082116109385781610b627f23d6711a1d031134a36921253c75aa59e967d38e369ac625992824315e204f20936020936001600160a01b0360015460081c169061126d565b604051908152a2005b90506020813d602011610b95575b81610b866020938361119b565b810103126101f2575184610b1d565b3d9150610b79565b6040513d6000823e3d90fd5b346101f25760003660031901126101f25760206001600160a01b0360015460081c16604051908152f35b346101f25760003660031901126101f257610bec611212565b60015460ff811615610c2b5760ff19166001557f5db9ee0a495bf2e6ff9c91a7834c1ba4fdd244a5e8aa4e537bd38aeae4b073aa6020604051338152a1005b606460405162461bcd60e51b815260206004820152601460248201527f5061757361626c653a206e6f74207061757365640000000000000000000000006044820152fd5b346101f25760003660031901126101f2576040517f20a02fde0000000000000000000000000000000000000000000000000000000081526000816004816001600160a01b037f0000000000000000000000000000000000000000000000000000000000000000165afa908115610b9d57600091610e33575b5051604051907f0aeac3a40000000000000000000000000000000000000000000000000000000082526020826004816001600160a01b037f0000000000000000000000000000000000000000000000000000000000000000165afa918215610b9d57600092610dff575b506000198201918211610a5e57604051917fe40208040000000000000000000000000000000000000000000000000000000083526020836004816001600160a01b037f0000000000000000000000000000000000000000000000000000000000000000165afa908115610b9d57606093600092610dde575b50604051928352602083015215156040820152f35b610df891925060203d60201161066557610656818361119b565b9084610dc9565b90916020823d602011610e2b575b81610e1a6020938361119b565b810103126107155750519082610d51565b3d9150610e0d565b3d8083833e610e42818361119b565b81019060208183031261087b5780519067ffffffffffffffff821161087f57019181601f840112156107155782519267ffffffffffffffff8411610ece578360051b9160405194610e96602085018761119b565b85526020808601938301019384116107155750602001905b828210610ebe5750505081610ce7565b8151815260209182019101610eae565b602482634e487b7160e01b81526041600452fd5b346101f25760003660031901126101f257610efb611212565b60006001600160a01b0360015474ffffffffffffffffffffffffffffffffffffffff0019811660015560081c167f8be0079c531659141344cd1fd0a4f28419497f9722a3daafe3b4186f6b6457e08280a3005b346101f25760003660031901126101f257602060ff600154166040519015158152f35b346101f25760203660031901126101f2576004356001600160a01b0381168091036101f25760005260036020526020604060002054604051908152f35b346101f25760003660031901126101f25760206040516001600160a01b037f0000000000000000000000000000000000000000000000000000000000000000168152f35b346101f25760003660031901126101f25761100b611212565b60015460ff811661104d5760019060ff1916176001557f62e78cea01bee320cd4e420270b5ea74000d11b0c9f74754ebdbfc544b05a2586020604051338152a1005b606460405162461bcd60e51b815260206004820152601060248201527f5061757361626c653a20706175736564000000000000000000000000000000006044820152fd5b346101f25760003660031901126101f25760206001600160a01b0360025416604051908152f35b346101f25760003660031901126101f2576020906001600160a01b037f0000000000000000000000000000000000000000000000000000000000000000168152f35b60409060031901126101f2576004356001600160a01b03811681036101f2579060243590565b60005b8381106111335750506000910152565b8181015183820152602001611123565b9060209161115c81518092818552858086019101611120565b601f01601f1916010190565b6101a0810190811067ffffffffffffffff82111761118557604052565b634e487b7160e01b600052604160045260246000fd5b90601f8019910116810190811067ffffffffffffffff82111761118557604052565b91908203918211610a5e57565b908160209103126101f2575180151581036101f25790565b51906001600160a01b03821682036101f257565b67ffffffffffffffff811161118557601f01601f191660200190565b6001600160a01b0360015460081c16330361122957565b606460405162461bcd60e51b815260206004820152602060248201527f4f776e61626c653a2063616c6c6572206973206e6f7420746865206f776e65726044820152fd5b6112c2926001600160a01b03604051937fa9059cbb0000000000000000000000000000000000000000000000000000000060208601521660248401526044830152604482526112bd60648361119b565b6112c4565b565b6001600160a01b036113469116916040926000808551936112e5878661119b565b602085527f5361666545524332303a206c6f772d6c6576656c2063616c6c206661696c6564602086015260208151910182855af13d156113e0573d9161132a836111f6565b926113378751948561119b565b83523d6000602085013e6113e4565b80519081159182156113c6575b50501561135d5750565b6084905162461bcd60e51b815260206004820152602a60248201527f5361666545524332303a204552433230206f7065726174696f6e20646964206e60448201527f6f742073756363656564000000000000000000000000000000000000000000006064820152fd5b6113d992506020809183010191016111ca565b3880611353565b6060915b9192901561144557508151156113f8575090565b3b156114015790565b606460405162461bcd60e51b815260206004820152601d60248201527f416464726573733a2063616c6c20746f206e6f6e2d636f6e74726163740000006044820152fd5b8251909150156114585750805190602001fd5b61147c9060405191829162461bcd60e51b8352602060048401526024830190611143565b0390fdfea26469706673582212202ee6a2b3139c0a48ba41e4fb15d2164df381dead557a5d930f876fe5843173fc64736f6c634300081c0033",
  "linkReferences": {},
  "deployedLinkReferences": {}
}