{
  "_format": "hh-sol-artifact-1",
  "contractName": "PolicyManager",
  "sourceName": "contracts/FOMOInsurance.sol",
  "abi": [
    {
      "inputs": [
        {
          "internalType": "address",
          "name": "_policyStorage",
          "type": "address"
        },
        {
          "internalType": "address",
          "name": "_priceOracle",
          "type": "address"
        }
      ],
      "stateMutability": "nonpayable",
      "type": "constructor"
    },
    {
      "inputs": [],
      "name": "InvalidParameters",
      "type": "error"
    },
    {
      "inputs": [],
      "name": "InvalidPolicyId",
      "type": "error"
    },
    {
      "inputs": [],
      "name": "PolicyNotOpen",
      "type": "error"
    },
    {
      "inputs": [],
      "name": "PriceNotAvailable",
      "type": "error"
    },
    {
      "inputs": [],
      "name": "Unauthorized",
      "type": "error"
    },
    {
      "inputs": [],
      "name": "UnsupportedToken",
      "type": "error"
    },
    {
      "anonymous": false,
      "inputs": [
        {
          "indexed": true,
          "internalType": "address",
          "name": "previousOwner",
          "type": "address"
        },
        {
          "indexed": true,
          "internalType": "address",
          "name": "newOwner",
          "type": "address"
        }
      ],
      "name": "OwnershipTransferred",
      "type": "event"
    },
    {
      "anonymous": false,
      "inputs": [
        {
          "indexed": false,
          "internalType": "address",
          "name": "account",
          "type": "address"
        }
      ],
      "name": "Paused",
      "type": "event"
    },
    {
      "anonymous": false,
      "inputs": [
        {
          "indexed": true,
          "internalType": "address",
          "name": "token",
          "type": "address"
        },
        {
          "indexed": false,
          "internalType": "bool",
          "name": "supported",
          "type": "bool"
        }
      ],
      "name": "PayoutTokenSupportUpdated",
      "type": "event"
    },
    {
      "anonymous": false,
      "inputs": [
        {
          "indexed": true,
          "internalType": "uint256",
          "name": "policyId",
          "type": "uint256"
        },
        {
          "indexed": true,
          "internalType": "address",
          "name": "seller",
          "type": "address"
        }
      ],
      "name": "PolicyCancelled",
      "type": "event"
    },
    {
      "anonymous": false,
      "inputs": [
        {
          "indexed": true,
          "internalType": "uint256",
          "name": "policyId",
          "type": "uint256"
        },
        {
          "indexed": true,
          "internalType": "address",
          "name": "seller",
          "type": "address"
        },
        {
          "indexed": true,
          "internalType": "address",
          "name": "token",
          "type": "address"
        },
        {
          "indexed": false,
          "internalType": "uint256",
          "name": "amount",
          "type": "uint256"
        },
        {
          "indexed": false,
          "internalType": "uint256",
          "name": "payoutAmount",
          "type": "uint256"
        },
        {
          "indexed": false,
          "internalType": "uint256",
          "name": "duration",
          "type": "uint256"
        },
        {
          "indexed": false,
          "internalType": "uint16",
          "name": "upsideShareBps",
          "type": "uint16"
        }
      ],
      "name": "PolicyCreated",
      "type": "event"
    },
    {
      "anonymous": false,
      "inputs": [
        {
          "indexed": true,
          "internalType": "address",
          "name": "token",
          "type": "address"
        },
        {
          "indexed": false,
          "internalType": "string",
          "name": "symbol",
          "type": "string"
        },
        {
          "indexed": false,
          "internalType": "bool",
          "name": "supported",
          "type": "bool"
        }
      ],
      "name": "TokenSupportUpdated",
      "type": "event"
    },
    {
      "anonymous": false,
      "inputs": [
        {
          "indexed": false,
          "internalType": "address",
          "name": "account",
          "type": "address"
        }
      ],
      "name": "Unpaused",
      "type": "event"
    },
    {
      "inputs": [],
      "name": "MAX_BPS",
      "outputs": [
        {
          "internalType": "uint16",
          "name": "",
          "type": "uint16"
        }
      ],
      "stateMutability": "view",
      "type": "function"
    },
    {
      "inputs": [],
      "name": "PRICE_PRECISION",
      "outputs": [
        {
          "internalType": "uint256",
          "name": "",
          "type": "uint256"
        }
      ],
      "stateMutability": "view",
      "type": "function"
    },
    {
      "inputs": [
        {
          "internalType": "uint256",
          "name": "policyId",
          "type": "uint256"
        }
      ],
      "name": "cancelPolicy",
      "outputs": [],
      "stateMutability": "nonpayable",
      "type": "function"
    },
    {
      "inputs": [
        {
          "internalType": "contract IERC20",
          "name": "token",
          "type": "address"
        },
        {
          "internalType": "string",
          "name": "tokenSymbol",
          "type": "string"
        },
        {
          "internalType": "uint256",
          "name": "amount",
          "type": "uint256"
        },
        {
          "internalType": "contract IERC20",
          "name": "payoutToken",
          "type": "address"
        },
        {
          "internalType": "uint16",
          "name": "payoutBps",
          "type": "uint16"
        },
        {
          "internalType": "uint256",
          "name": "duration",
          "type": "uint256"
        },
        {
          "internalType": "uint16",
          "name": "upsideShareBps",
          "type": "uint16"
        }
      ],
      "name": "createPolicy",
      "outputs": [
        {
          "internalType": "uint256",
          "name": "policyId",
          "type": "uint256"
        }
      ],
      "stateMutability": "nonpayable",
      "type": "function"
    },
    {
      "inputs": [],
      "name": "getOpenPolicyIds",
      "outputs": [
        {
          "internalType": "uint256[]",
          "name": "",
          "type": "uint256[]"
        }
      ],
      "stateMutability": "view",
      "type": "function"
    },
    {
      "inputs": [
        {
          "internalType": "address",
          "name": "user",
          "type": "address"
        }
      ],
      "name": "getUserPolicies",
      "outputs": [
        {
          "internalType": "uint256[]",
          "name": "",
          "type": "uint256[]"
        }
      ],
      "stateMutability": "view",
      "type": "function"
    },
    {
      "inputs": [
        {
          "internalType": "uint256",
          "name": "",
          "type": "uint256"
        }
      ],
      "name": "openPolicyIds",
      "outputs": [
        {
          "internalType": "uint256",
          "name": "",
          "type": "uint256"
        }
      ],
      "stateMutability": "view",
      "type": "function"
    },
    {
      "inputs": [
        {
          "internalType": "uint256",
          "name": "",
          "type": "uint256"
        }
      ],
      "name": "openPolicyIndex",
      "outputs": [
        {
          "internalType": "uint256",
          "name": "",
          "type": "uint256"
        }
      ],
      "stateMutability": "view",
      "type": "function"
    },
    {
      "inputs": [],
      "name": "owner",
      "outputs": [
        {
          "internalType": "address",
          "name": "",
          "type": "address"
        }
      ],
      "stateMutability": "view",
      "type": "function"
    },
    {
      "inputs": [],
      "name": "pause",
      "outputs": [],
      "stateMutability": "nonpayable",
      "type": "function"
    },
    {
      "inputs": [],
      "name": "paused",
      "outputs": [
        {
          "internalType": "bool",
          "name": "",
          "type": "bool"
        }
      ],
      "stateMutability": "view",
      "type": "function"
    },
    {
      "inputs": [],
      "name": "policyStorage",
      "outputs": [
        {
          "internalType": "contract IPolicyStorage",
          "name": "",
          "type": "address"
        }
      ],
      "stateMutability": "view",
      "type": "function"
    },
    {
      "inputs": [],
      "name": "priceOracle",
      "outputs": [
        {
          "internalType": "contract IPriceOracle",
          "name": "",
          "type": "address"
        }
      ],
      "stateMutability": "view",
      "type": "function"
    },
    {
      "inputs": [
        {
          "internalType": "uint256",
          "name": "policyId",
          "type": "uint256"
        }
      ],
      "name": "purchasePolicy",
      "outputs": [],
      "stateMutability": "nonpayable",
      "type": "function"
    },
    {
      "inputs": [],
      "name": "renounceOwnership",
      "outputs": [],
      "stateMutability": "nonpayable",
      "type": "function"
    },
    {
      "inputs": [
        {
          "internalType": "address",
          "name": "token",
          "type": "address"
        },
        {
          "internalType": "bool",
          "name": "supported",
          "type": "bool"
        }
      ],
      "name": "setPayoutTokenSupport",
      "outputs": [],
      "stateMutability": "nonpayable",
      "type": "function"
    },
    {
      "inputs": [
        {
          "internalType": "address",
          "name": "token",
          "type": "address"
        },
        {
          "internalType": "string",
          "name": "symbol",
          "type": "string"
        },
        {
          "internalType": "bool",
          "name": "supported",
          "type": "bool"
        }
      ],
      "name": "setTokenSupport",
      "outputs": [],
      "stateMutability": "nonpayable",
      "type": "function"
    },
    {
      "inputs": [
        {
          "internalType": "address",
          "name": "",
          "type": "address"
        }
      ],
      "name": "supportedPayoutTokens",
      "outputs": [
        {
          "internalType": "bool",
          "name": "",
          "type": "bool"
        }
      ],
      "stateMutability": "view",
      "type": "function"
    },
    {
      "inputs": [
        {
          "internalType": "address",
          "name": "",
          "type": "address"
        }
      ],
      "name": "supportedTokens",
      "outputs": [
        {
          "internalType": "bool",
          "name": "",
          "type": "bool"
        }
      ],
      "stateMutability": "view",
      "type": "function"
    },
    {
      "inputs": [
        {
          "internalType": "address",
          "name": "",
          "type": "address"
        }
      ],
      "name": "tokenSymbols",
      "outputs": [
        {
          "internalType": "string",
          "name": "",
          "type": "string"
        }
      ],
      "stateMutability": "view",
      "type": "function"
    },
    {
      "inputs": [
        {
          "internalType": "address",
          "name": "newOwner",
          "type": "address"
        }
      ],
      "name": "transferOwnership",
      "outputs": [],
      "stateMutability": "nonpayable",
      "type": "function"
    },
    {
      "inputs": [],
      "name": "unpause",
      "outputs": [],
      "stateMutability": "nonpayable",
      "type": "function"
    },
    {
      "inputs": [
        {
          "internalType": "address",
          "name": "",
          "type": "address"
        },
        {
          "internalType": "uint256",
          "name": "",
          "type": "uint256"
        }
      ],
      "name": "userPolicies",
      "outputs": [
        {
          "internalType": "uint256",
          "name": "",
          "type": "uint256"
        }
      ],
      "stateMutability": "view",
      "type": "function"
    }
  ],
  "bytecode": "0x60c03461016157601f6120f338819003918201601f19168301916001600160401b0383118484101761016657808492604094855283398101031261016157610052602061004b8361017c565b920161017c565b90600160005560ff196001541660015561006b33610190565b6001600160a01b031690811561011c576001600160a01b03169081156100d75760805260a05261009a33610190565b604051611f0690816101ed823960805181818161044301528181610a6201528181610d0501526110bc015260a05181818161054301526111e50152f35b60405162461bcd60e51b815260206004820152601660248201527f496e76616c6964206f7261636c652061646472657373000000000000000000006044820152606490fd5b60405162461bcd60e51b815260206004820152601760248201527f496e76616c69642073746f7261676520616464726573730000000000000000006044820152606490fd5b600080fd5b634e487b7160e01b600052604160045260246000fd5b51906001600160a01b038216820361016157565b60018054610100600160a81b03198116600884811b610100600160a81b0316919091179092556001600160a01b0392831692911c167f8be0079c531659141344cd1fd0a4f28419497f9722a3daafe3b4186f6b6457e0600080a356fe6080604052600436101561001257600080fd5b6000803560e01c80630ff035dc146113265780631438dbad146112fc57806319ac46141461128a57806320a02fde146112095780632630c12f146111c55780633d36adc51461117d5780633f4ba83a146110e0578063599fe9ec1461109c5780635c975abb1461107957806368c4ac261461103c578063715018a614610fd05780638456cb5914610f765780638da5cb5b14610f4c57806395082d2514610f2d578063b01c8d1d14610ea4578063b20e8bcc14610cde578063c1260c9a14610a33578063d9a7f05f146103a7578063f26627441461036a578063f2fde38b1461025e578063f553e21d14610224578063fb0b2b36146101395763fd967f471461011a57600080fd5b3461013657806003193601126101365760206040516127108152f35b80fd5b5034610136576020366003190112610136576001600160a01b0361015b611565565b168152600760205260408120906040519181815491610179836116b6565b80865292600181169081156101fa57506001146101b9575b6101b5856101a1818703826115ae565b604051918291602083526020830190611713565b0390f35b815260208120939250905b8082106101e0575090915081016020016101a1826101b5610191565b9192600181602092548385880101520191019092916101c4565b8695506101b5969350602092506101a194915060ff191682840152151560051b8201019293610191565b5034610136576020366003190112610136576004359060025482101561013657602061024f8361166d565b90549060031b1c604051908152f35b503461013657602036600319011261013657610278611565565b610280611a87565b6001600160a01b038116908115610300576001600160a01b039074ffffffffffffffffffffffffffffffffffffffff006001549160081b1674ffffffffffffffffffffffffffffffffffffffff001982161760015560081c167f8be0079c531659141344cd1fd0a4f28419497f9722a3daafe3b4186f6b6457e08380a380f35b608460405162461bcd60e51b815260206004820152602660248201527f4f776e61626c653a206e6577206f776e657220697320746865207a65726f206160448201527f64647265737300000000000000000000000000000000000000000000000000006064820152fd5b50346101365760203660031901126101365760ff60406020926001600160a01b03610393611565565b168152600684522054166040519015158152f35b50346101365760e0366003190112610136576103c1611565565b60243567ffffffffffffffff8111610a2f576103e19036906004016115ec565b90604435606435916001600160a01b038316809303610a2b576084359061ffff8216809203610a275760a4359060c4359261ffff8416809403610a2357610426611ae2565b61042e611bcf565b6001600160a01b038216956001600160a01b037f0000000000000000000000000000000000000000000000000000000000000000166040516330fe427560e21b815260e081600481855afa908115610a18578b916109e9575b50888b52600560205260ff60408c205416156109c157828b52600660205260ff60408c205416156109c15787156109945761ffff606082015116841080156109b0575b610994576080810151861080156109a3575b6109945761ffff6020820151168710908115610985575b50610976576040517f524f388900000000000000000000000000000000000000000000000000000000815260206004820152602081806105378d6024830190611713565b03816001600160a01b037f0000000000000000000000000000000000000000000000000000000000000000165afa8b9181610942575b5061059a5760048b7f579a4801000000000000000000000000000000000000000000000000000000008152fd5b926105a489611c79565b6105ad84611c79565b6105b7868b611a27565b916305f5e100810180911161092e57906105d091611a50565b604d811161091a57600a0a90811561090657916105f1916127109304611a27565b04936040516370a0823160e01b81523060048201526020816024818d5afa9081156108c55789908d926108d0575b5061062e919230903390611c1f565b604051906370a0823160e01b82523060048301526020826024818d5afa80156108c55789928d9161088c575b509061066591611a50565b0361084857899860209361070893604051926106808461157b565b3384528c878501528b6040850152606084015289608084015260a08301528560c08301528660e083015287610100830152610120820152896101408201528961016082015289610180820152604051998a809481937f6505d958000000000000000000000000000000000000000000000000000000008352876004840152602483019061189b565b03925af195861561083d578796610804575b50600254680100000000000000008110156107f0578661074582600161075e9401600255600261169e565b90919082549060031b91821b91600019901b1916179055565b60025460001981019081116107dc579160019593918895938860209a5260038a526040872055338652600489526107988860408820611a5d565b6040519384528884015260408301526060820152847f6916d5a6dcdc93115e5b7df075ca4a2ec6f58f47e8d6f507023a2b7e2b6da5a260803393a455604051908152f35b602488634e487b7160e01b81526011600452fd5b602488634e487b7160e01b81526041600452fd5b9095506020813d602011610835575b81610820602093836115ae565b810103126108305751943861071a565b600080fd5b3d9150610813565b6040513d89823e3d90fd5b606460405162461bcd60e51b815260206004820152601860248201527f5472616e7366657220616d6f756e74206d69736d6174636800000000000000006044820152fd5b919250506020813d6020116108bd575b816108a9602093836115ae565b81010312610830575188919061066561065a565b3d915061089c565b6040513d8e823e3d90fd5b9150506020813d6020116108fe575b816108ec602093836115ae565b8101031261083057518861062e61061f565b3d91506108df565b60248d634e487b7160e01b81526012600452fd5b60248d634e487b7160e01b81526011600452fd5b60248e634e487b7160e01b81526011600452fd5b9091506020813d60201161096e575b8161095e602093836115ae565b810103126108305751903861056d565b3d9150610951565b60048a630e52390960e41b8152fd5b61ffff915051168611386104f3565b60048b630e52390960e41b8152fd5b5060a081015186116104dc565b5061ffff60408201511684116104ca565b60048b7f6a172882000000000000000000000000000000000000000000000000000000008152fd5b610a0b915060e03d60e011610a11575b610a0381836115ae565b810190611997565b38610487565b503d6109f9565b6040513d8d823e3d90fd5b8780fd5b8580fd5b8480fd5b8280fd5b503461013657602036600319011261013657600435610a50611ae2565b610a58611bcf565b6001600160a01b037f00000000000000000000000000000000000000000000000000000000000000001660405190632b07fce360e01b82528260048301528382602481845afa918215610cd3578492610caf575b50610180820180516004811015610c9b57610c73576001600160a01b038351163314610c65576040516330fe427560e21b815260e081600481865afa908115610c5a578691610c3b575b50610b1f612710610b1660c087019361ffff60c086519201511690611a27565b04809251611a50565b90610b4660a08601926001600160a01b038451166001600160a01b03885116903390611c1f565b80610c0f575b50503360208401524261014084015260e08301514201804211610bfb5761016084015260019052839190803b15610a2f57610ba283929183926040519485809481936383994f3f60e01b83528a6004840161197d565b03925af18015610bf057610bd7575b50610bd082610bbf81611b37565b338352600460205260408320611a5d565b6001815580f35b81610be1916115ae565b610bec578138610bb1565b5080fd5b6040513d84823e3d90fd5b602486634e487b7160e01b81526011600452fd5b6001600160a01b03610c349251166001600160a01b0360015460081c16903390611c1f565b3880610b4c565b610c54915060e03d60e011610a1157610a0381836115ae565b38610af6565b6040513d88823e3d90fd5b6004856282b42960e81b8152fd5b6004857fc8a00da6000000000000000000000000000000000000000000000000000000008152fd5b602486634e487b7160e01b81526021600452fd5b610ccc9192503d8086833e610cc481836115ae565b81019061175b565b9038610aac565b6040513d86823e3d90fd5b503461013657602036600319011261013657600435610cfb611ae2565b6001600160a01b037f00000000000000000000000000000000000000000000000000000000000000001660405190632b07fce360e01b82528260048301528382602481845afa918215610cd3578492610e88575b506001600160a01b038251163303610e7a57610180820180516004811015610c9b57610c7357600390610de26001600160a01b036040860151166001600160a01b03865116906080870151604051927fa9059cbb0000000000000000000000000000000000000000000000000000000060208501526024840152604483015260448252610ddd6064836115ae565b611d0b565b52803b15610e76578360405180926383994f3f60e01b8252818381610e0b888a6004840161197d565b03925af18015610cd357610e5b575b506001600160a01b0390610e2d83611b37565b5116907f7ccb895829fd342f252a2a7ec521b68a89d4fe7f83acc57725b5b358c290fca38380a36001815580f35b92610e6f816001600160a01b0393956115ae565b9290610e1a565b8380fd5b6004846282b42960e81b8152fd5b610e9d9192503d8086833e610cc481836115ae565b9038610d4f565b503461013657604036600319011261013657610ebe611565565b6024359081151590818303610e76577fdd8eae067f20c701ac20399a8edac8176e3402a39f0683ea70e340be49825f3a91610f236001600160a01b03602093610f05611a87565b169485875260068452604087209060ff801983541691151516179055565b604051908152a280f35b503461013657806003193601126101365760206040516305f5e1008152f35b503461013657806003193601126101365760206001600160a01b0360015460081c16604051908152f35b5034610136578060031936011261013657610f8f611a87565b610f97611bcf565b600160ff19815416176001557f62e78cea01bee320cd4e420270b5ea74000d11b0c9f74754ebdbfc544b05a2586020604051338152a180f35b5034610136578060031936011261013657610fe9611a87565b806001600160a01b0360015474ffffffffffffffffffffffffffffffffffffffff0019811660015560081c167f8be0079c531659141344cd1fd0a4f28419497f9722a3daafe3b4186f6b6457e08280a380f35b50346101365760203660031901126101365760ff60406020926001600160a01b03611065611565565b168152600584522054166040519015158152f35b5034610136578060031936011261013657602060ff600154166040519015158152f35b503461013657806003193601126101365760206040516001600160a01b037f0000000000000000000000000000000000000000000000000000000000000000168152f35b50346101365780600319360112610136576110f9611a87565b60015460ff8116156111395760ff19166001557f5db9ee0a495bf2e6ff9c91a7834c1ba4fdd244a5e8aa4e537bd38aeae4b073aa6020604051338152a180f35b606460405162461bcd60e51b815260206004820152601460248201527f5061757361626c653a206e6f74207061757365640000000000000000000000006044820152fd5b503461013657604036600319011261013657611197611565565b6001600160a01b031681526004602052604081208054602435929083101561013657602061024f848461169e565b503461013657806003193601126101365760206040516001600160a01b037f0000000000000000000000000000000000000000000000000000000000000000168152f35b503461013657806003193601126101365760405180916020600254928381520191600282527f405787fa12a823e0f2b7631cc41b3ba8828b3321ca811111fa75cd3aa3bb5ace915b818110611274576101b585611268818703826115ae565b60405191829182611633565b8254845260209093019260019283019201611251565b5034610136576020366003190112610136576001600160a01b036112ac611565565b168152600460205260408120604051918260208354918281520192825260208220915b8181106112e6576101b585611268818703826115ae565b82548452602090930192600192830192016112cf565b50346101365760203660031901126101365760406020916004358152600383522054604051908152f35b503461013657606036600319011261013657611340611565565b60243567ffffffffffffffff8111610a2f576113609036906004016115ec565b6044359182151590818403610a2b576001600160a01b0390611380611a87565b169283855260056020526113a381604087209060ff801983541691151516179055565b6113ee575b7f69f44efa7bdbe1639cfcc4fbb2640f3017a933a00df5752451629e3bb6dd56ef916113e291604051928392604084526040840190611713565b9060208301520390a280f35b828452600760205260408420825167ffffffffffffffff81116115515761141582546116b6565b601f811161150c575b506020601f82116001146114855791816113e294927f69f44efa7bdbe1639cfcc4fbb2640f3017a933a00df5752451629e3bb6dd56ef9694899161147a575b508160011b916000199060031b1c19161790555b915091506113a8565b90508401513861145d565b82875280872090601f198316885b8181106114f45750927f69f44efa7bdbe1639cfcc4fbb2640f3017a933a00df5752451629e3bb6dd56ef969492600192826113e29896106114db575b5050811b019055611471565b86015160001960f88460031b161c1916905538806114cf565b9192602060018192868b015181550194019201611493565b82875260208720601f830160051c81019160208410611547575b601f0160051c01905b81811061153c575061141e565b87815560010161152f565b9091508190611526565b602486634e487b7160e01b81526041600452fd5b600435906001600160a01b038216820361083057565b6101a0810190811067ffffffffffffffff82111761159857604052565b634e487b7160e01b600052604160045260246000fd5b90601f8019910116810190811067ffffffffffffffff82111761159857604052565b67ffffffffffffffff811161159857601f01601f191660200190565b81601f8201121561083057803590611603826115d0565b9261161160405194856115ae565b8284526020838301011161083057816000926020809301838601378301015290565b602060408183019282815284518094520192019060005b8181106116575750505090565b825184526020938401939092019160010161164a565b60025481101561168857600260005260206000200190600090565b634e487b7160e01b600052603260045260246000fd5b80548210156116885760005260206000200190600090565b90600182811c921680156116e6575b60208310146116d057565b634e487b7160e01b600052602260045260246000fd5b91607f16916116c5565b60005b8381106117035750506000910152565b81810151838201526020016116f3565b9060209161172c815180928185528580860191016116f0565b601f01601f1916010190565b51906001600160a01b038216820361083057565b519061ffff8216820361083057565b6020818303126108305780519067ffffffffffffffff82116108305701906101a08282031261083057604051916117918361157b565b61179a81611738565b83526117a860208201611738565b60208401526117b960408201611738565b6040840152606081015167ffffffffffffffff81116108305781019180601f84011215610830578251926117ec846115d0565b916117fa60405193846115ae565b84835260208583010111610830576101809361181c91602080850191016116f0565b60608401526080810151608084015261183760a08201611738565b60a084015260c081015160c084015260e081015160e084015261185d610100820161174c565b610100840152610120810151610120840152610140810151610140840152610160810151610160840152015160048110156108305761018082015290565b906001600160a01b0382511681526001600160a01b0360208301511660208201526001600160a01b0360408301511660408201526101806118ed60608401516101a060608501526101a0840190611713565b92608081015160808401526001600160a01b0360a08201511660a084015260c081015160c084015260e081015160e084015261ffff61010082015116610100840152610120810151610120840152610140810151610140840152610160810151610160840152015190600482101561196757610180015290565b634e487b7160e01b600052602160045260246000fd5b60409061199493928152816020820152019061189b565b90565b908160e0910312610830576040519060e0820182811067ffffffffffffffff82111761159857611a1f9160c0916040526119d08161174c565b84526119de6020820161174c565b60208501526119ef6040820161174c565b6040850152611a006060820161174c565b60608501526080810151608085015260a081015160a08501520161174c565b60c082015290565b81810292918115918404141715611a3a57565b634e487b7160e01b600052601160045260246000fd5b91908203918211611a3a57565b90815491680100000000000000008310156115985782610745916001611a859501815561169e565b565b6001600160a01b0360015460081c163303611a9e57565b606460405162461bcd60e51b815260206004820152602060248201527f4f776e61626c653a2063616c6c6572206973206e6f7420746865206f776e65726044820152fd5b600260005414611af3576002600055565b606460405162461bcd60e51b815260206004820152601f60248201527f5265656e7472616e637947756172643a207265656e7472616e742063616c6c006044820152fd5b8060005260036020526040600020546002546000198101908111611a3a57611b5e9061166d565b90549060031b1c611b72816107458461166d565b60005260036020526040600020556002548015611bb95760001901611b968161166d565b8154906000199060031b1b19169055600255600052600360205260006040812055565b634e487b7160e01b600052603160045260246000fd5b60ff60015416611bdb57565b606460405162461bcd60e51b815260206004820152601060248201527f5061757361626c653a20706175736564000000000000000000000000000000006044820152fd5b9091926001600160a01b03611a859481604051957f23b872dd000000000000000000000000000000000000000000000000000000006020880152166024860152166044840152606483015260648252610ddd6084836115ae565b60206001600160a01b03916004604051809481937f313ce567000000000000000000000000000000000000000000000000000000008352165afa8091600091611ccf575b5090611cc95750601290565b60ff1690565b6020813d602011611d03575b81611ce8602093836115ae565b81010312610bec57519060ff82168203610136575038611cbd565b3d9150611cdb565b6001600160a01b03611d8d911691604092600080855193611d2c87866115ae565b602085527f5361666545524332303a206c6f772d6c6576656c2063616c6c206661696c6564602086015260208151910182855af13d15611e30573d91611d71836115d0565b92611d7e875194856115ae565b83523d6000602085013e611e34565b8051908115918215611e0d575b505015611da45750565b6084905162461bcd60e51b815260206004820152602a60248201527f5361666545524332303a204552433230206f7065726174696f6e20646964206e60448201527f6f742073756363656564000000000000000000000000000000000000000000006064820152fd5b819250906020918101031261083057602001518015158103610830573880611d9a565b6060915b91929015611e955750815115611e48575090565b3b15611e515790565b606460405162461bcd60e51b815260206004820152601d60248201527f416464726573733a2063616c6c20746f206e6f6e2d636f6e74726163740000006044820152fd5b825190915015611ea85750805190602001fd5b611ecc9060405191829162461bcd60e51b8352602060048401526024830190611713565b0390fdfea26469706673582212207b358b874067a9bf17e85aa730ed357f9bce8214d87d31cfba09cfdc0509cc6264736f6c634300081c0033",
  "linkReferences": {},
  "deployedLinkReferences": {}
}