{
  "_format": "hh-sol-artifact-1",
  "contractName": "PrimaryProdDataServiceConsumerBase",
  "sourceName": "@redstone-finance/evm-connector/contracts/data-services/PrimaryProdDataServiceConsumerBase.sol",
  "abi": [
    {
      "inputs": [],
      "name": "CalldataMustHaveValidPayload",
      "type": "error"
    },
    {
      "inputs": [],
      "name": "CalldataOverOrUnderFlow",
      "type": "error"
    },
    {
      "inputs": [],
      "name": "CanNotPickMedianOfEmptyArray",
      "type": "error"
    },
    {
      "inputs": [],
      "name": "DataPackageTimestampMustNotBeZero",
      "type": "error"
    },
    {
      "inputs": [],
      "name": "DataPackageTimestampsMustBeEqual",
      "type": "error"
    },
    {
      "inputs": [],
      "name": "DataTimestampCannotBeZero",
      "type": "error"
    },
    {
      "inputs": [],
      "name": "EachSignerMustProvideTheSameValue",
      "type": "error"
    },
    {
      "inputs": [],
      "name": "EmptyCalldataPointersArr",
      "type": "error"
    },
    {
      "inputs": [],
      "name": "GetDataServiceIdNotImplemented",
      "type": "error"
    },
    {
      "inputs": [],
      "name": "IncorrectUnsignedMetadataSize",
      "type": "error"
    },
    {
      "inputs": [
        {
          "internalType": "uint256",
          "name": "receivedSignersCount",
          "type": "uint256"
        },
        {
          "internalType": "uint256",
          "name": "requiredSignersCount",
          "type": "uint256"
        }
      ],
      "name": "InsufficientNumberOfUniqueSigners",
      "type": "error"
    },
    {
      "inputs": [],
      "name": "InvalidCalldataPointer",
      "type": "error"
    },
    {
      "inputs": [],
      "name": "RedstonePayloadMustHaveAtLeastOneDataPackage",
      "type": "error"
    },
    {
      "inputs": [
        {
          "internalType": "address",
          "name": "receivedSigner",
          "type": "address"
        }
      ],
      "name": "SignerNotAuthorised",
      "type": "error"
    },
    {
      "inputs": [
        {
          "internalType": "uint256",
          "name": "receivedTimestampSeconds",
          "type": "uint256"
        },
        {
          "internalType": "uint256",
          "name": "blockTimestamp",
          "type": "uint256"
        }
      ],
      "name": "TimestampFromTooLongFuture",
      "type": "error"
    },
    {
      "inputs": [
        {
          "internalType": "uint256",
          "name": "receivedTimestampSeconds",
          "type": "uint256"
        },
        {
          "internalType": "uint256",
          "name": "blockTimestamp",
          "type": "uint256"
        }
      ],
      "name": "TimestampIsTooOld",
      "type": "error"
    },
    {
      "inputs": [],
      "name": "TimestampsMustBeEqual",
      "type": "error"
    },
    {
      "inputs": [
        {
          "internalType": "uint256",
          "name": "valueByteSize",
          "type": "uint256"
        }
      ],
      "name": "TooLargeValueByteSize",
      "type": "error"
    },
    {
      "inputs": [
        {
          "internalType": "uint256[]",
          "name": "values",
          "type": "uint256[]"
        }
      ],
      "name": "aggregateValues",
      "outputs": [
        {
          "internalType": "uint256",
          "name": "",
          "type": "uint256"
        }
      ],
      "stateMutability": "view",
      "type": "function"
    },
    {
      "inputs": [],
      "name": "extractTimestampsAndAssertAllAreEqual",
      "outputs": [
        {
          "internalType": "uint256",
          "name": "extractedTimestamp",
          "type": "uint256"
        }
      ],
      "stateMutability": "pure",
      "type": "function"
    },
    {
      "inputs": [
        {
          "internalType": "address",
          "name": "signerAddress",
          "type": "address"
        }
      ],
      "name": "getAuthorisedSignerIndex",
      "outputs": [
        {
          "internalType": "uint8",
          "name": "",
          "type": "uint8"
        }
      ],
      "stateMutability": "view",
      "type": "function"
    },
    {
      "inputs": [],
      "name": "getDataServiceId",
      "outputs": [
        {
          "internalType": "string",
          "name": "",
          "type": "string"
        }
      ],
      "stateMutability": "view",
      "type": "function"
    },
    {
      "inputs": [],
      "name": "getUniqueSignersThreshold",
      "outputs": [
        {
          "internalType": "uint8",
          "name": "",
          "type": "uint8"
        }
      ],
      "stateMutability": "view",
      "type": "function"
    },
    {
      "inputs": [
        {
          "internalType": "uint256",
          "name": "receivedTimestampMilliseconds",
          "type": "uint256"
        }
      ],
      "name": "validateTimestamp",
      "outputs": [],
      "stateMutability": "view",
      "type": "function"
    }
  ],
  "bytecode": "0x60808060405234601557610881908161001b8239f35b600080fdfe6080604052600436101561001257600080fd5b60003560e01c80633ce142f51461007757806355a547d514610072578063b24ebfcc1461006d578063c274583a14610068578063f50b2efe146100635763f90c49241461005e57600080fd5b61042b565b61037c565b6102ea565b61024b565b6100c3565b346100be5760203660031901126100be5760043573ffffffffffffffffffffffffffffffffffffffff811681036100be576100b3602091610447565b60ff60405191168152f35b600080fd5b346100be5760003660031901126100be57600061ffff6100e96100e46105b2565b610687565b91169081156101c057919060005b81811061010e5760405183815280602081015b0390f35b9091610119846106b0565b9065ffffffffffff61013361012d8761055f565b366105a5565b35169081156101965780610158575060019161014f9195610589565b939291016100f7565b8095910361016c5760019161014f91610589565b7fd9d1f4650000000000000000000000000000000000000000000000000000000060005260046000fd5b7f336dc9d00000000000000000000000000000000000000000000000000000000060005260046000fd5b7f8552ff3c0000000000000000000000000000000000000000000000000000000060005260046000fd5b634e487b7160e01b600052604160045260246000fd5b604051906040820182811067ffffffffffffffff82111761022057604052565b6101ea565b6040519190601f01601f1916820167ffffffffffffffff81118382101761022057604052565b346100be5760203660031901126100be5760043567ffffffffffffffff81116100be57366023820112156100be5780600401359067ffffffffffffffff8211610220578160051b602460206102a1818401610225565b809581520191830101913683116100be57602401905b8282106102da5761010a6102ca85610750565b6040519081529081906020820190565b81358152602091820191016102b7565b346100be5760003660031901126100be57610303610200565b601581527f72656473746f6e652d7072696d6172792d70726f640000000000000000000000602082015260405190602082528181519182602083015260005b8381106103645750508160006040809484010152601f80199101168101030190f35b60208282018101516040878401015285935001610342565b346100be5760203660031901126100be576103e8600435048042106000146103e7574281038181116103e257603c106103b157005b7fb6b0916d000000000000000000000000000000000000000000000000000000006000526004524260245260446000fd5b610549565b8042034281116103e25760b4106103fa57005b7f0321d0b5000000000000000000000000000000000000000000000000000000006000526004524260245260446000fd5b346100be5760003660031901126100be57602060405160038152f35b73ffffffffffffffffffffffffffffffffffffffff8116738bb8f32df04c8b654987daaed53d6b6091e3b7748103610480575050600090565b73deb22f54738d54976c4c0fe5ce6d408e40d8849981036104a2575050600190565b7351ce04be4b3e32572c4ec9135221d0691ba7d20281036104c4575050600290565b73dd682daec5a90dd295d14da4b0bec9281017b5be81036104e6575050600390565b739c5ae89c4af6aa32ce58588dbaf90d18a855b6de036105065750600490565b7fec459bc00000000000000000000000000000000000000000000000000000000060005273ffffffffffffffffffffffffffffffffffffffff1660045260246000fd5b634e487b7160e01b600052601160045260246000fd5b90606882018092116103e257565b90600282018092116103e257565b90604e82018092116103e257565b919082018092116103e257565b6000198101919082116103e257565b919082039182116103e257565b6602ed57011e0000601f19360135166602ed57011e00000361065d57366029116106335762ffffff60281936013516600381018091116103e257600981018091116103e257366106018261056d565b116106095790565b7fc30a7bd70000000000000000000000000000000000000000000000000000000060005260046000fd5b7f5796f78a0000000000000000000000000000000000000000000000000000000060005260046000fd5b7fe7764c9e0000000000000000000000000000000000000000000000000000000060005260046000fd5b90602082018083116103e25736106106335760028201918281116103e2573603601f1901359190565b604181018082116103e25760618201106103e25736036060198101903682116103e25760631901908082116103e25762ffffff63ffffffff91351691351660200190816020116103e2578181029181830414901517156103e2576107139061057b565b90565b8051600110156107265760400190565b634e487b7160e01b600052603260045260246000fd5b80518210156107265760209160051b010190565b60028151146107df578051156107b557610769816107fb565b805160011c81516001166107a8576107139161079b8261079461078e6107a295610596565b8461073c565b519261073c565b5190610589565b60011c90565b6107b19161073c565b5190565b7f9e198af90000000000000000000000000000000000000000000000000000000060005260046000fd5b805115610726576107a28161079b602061071394015191610716565b805160051b810160209081019101805b82811061081757505050565b815b818110610829575060200161080b565b60209082518151808210610840575b505001610819565b84528152388061083856fea2646970667358221220c6f8a6595c4ee303ccf419bee03bdd57e4df523ca155f6f7390cc637e2939bad64736f6c634300081c0033",
  "linkReferences": {},
  "deployedLinkReferences": {}
}