{
  "_format": "hh-sol-artifact-1",
  "contractName": "PolicyStorage",
  "sourceName": "contracts/FOMOInsurance.sol",
  "abi": [
    {
      "inputs": [
        {
          "components": [
            {
              "internalType": "uint16",
              "name": "maxUpsideShareBps",
              "type": "uint16"
            },
            {
              "internalType": "uint16",
              "name": "minUpsideShareBps",
              "type": "uint16"
            },
            {
              "internalType": "uint16",
              "name": "maxPayoutBps",
              "type": "uint16"
            },
            {
              "internalType": "uint16",
              "name": "minPayoutBps",
              "type": "uint16"
            },
            {
              "internalType": "uint256",
              "name": "minDuration",
              "type": "uint256"
            },
            {
              "internalType": "uint256",
              "name": "maxDuration",
              "type": "uint256"
            },
            {
              "internalType": "uint16",
              "name": "platformFeeBps",
              "type": "uint16"
            }
          ],
          "internalType": "struct IPolicyStorage.Config",
          "name": "_config",
          "type": "tuple"
        }
      ],
      "stateMutability": "nonpayable",
      "type": "constructor"
    },
    {
      "inputs": [],
      "name": "InvalidPolicyId",
      "type": "error"
    },
    {
      "inputs": [],
      "name": "Unauthorized",
      "type": "error"
    },
    {
      "anonymous": false,
      "inputs": [
        {
          "components": [
            {
              "internalType": "uint16",
              "name": "maxUpsideShareBps",
              "type": "uint16"
            },
            {
              "internalType": "uint16",
              "name": "minUpsideShareBps",
              "type": "uint16"
            },
            {
              "internalType": "uint16",
              "name": "maxPayoutBps",
              "type": "uint16"
            },
            {
              "internalType": "uint16",
              "name": "minPayoutBps",
              "type": "uint16"
            },
            {
              "internalType": "uint256",
              "name": "minDuration",
              "type": "uint256"
            },
            {
              "internalType": "uint256",
              "name": "maxDuration",
              "type": "uint256"
            },
            {
              "internalType": "uint16",
              "name": "platformFeeBps",
              "type": "uint16"
            }
          ],
          "indexed": false,
          "internalType": "struct IPolicyStorage.Config",
          "name": "newConfig",
          "type": "tuple"
        }
      ],
      "name": "ConfigUpdated",
      "type": "event"
    },
    {
      "anonymous": false,
      "inputs": [
        {
          "indexed": true,
          "internalType": "address",
          "name": "previousOwner",
          "type": "address"
        },
        {
          "indexed": true,
          "internalType": "address",
          "name": "newOwner",
          "type": "address"
        }
      ],
      "name": "OwnershipTransferred",
      "type": "event"
    },
    {
      "anonymous": false,
      "inputs": [
        {
          "indexed": true,
          "internalType": "address",
          "name": "writer",
          "type": "address"
        },
        {
          "indexed": false,
          "internalType": "bool",
          "name": "authorized",
          "type": "bool"
        }
      ],
      "name": "WriterAuthorizationUpdated",
      "type": "event"
    },
    {
      "inputs": [
        {
          "components": [
            {
              "internalType": "address",
              "name": "seller",
              "type": "address"
            },
            {
              "internalType": "address",
              "name": "buyer",
              "type": "address"
            },
            {
              "internalType": "contract IERC20",
              "name": "token",
              "type": "address"
            },
            {
              "internalType": "string",
              "name": "tokenSymbol",
              "type": "string"
            },
            {
              "internalType": "uint256",
              "name": "amount",
              "type": "uint256"
            },
            {
              "internalType": "contract IERC20",
              "name": "payoutToken",
              "type": "address"
            },
            {
              "internalType": "uint256",
              "name": "payoutAmount",
              "type": "uint256"
            },
            {
              "internalType": "uint256",
              "name": "duration",
              "type": "uint256"
            },
            {
              "internalType": "uint16",
              "name": "upsideShareBps",
              "type": "uint16"
            },
            {
              "internalType": "uint256",
              "name": "entryPrice",
              "type": "uint256"
            },
            {
              "internalType": "uint256",
              "name": "startTimestamp",
              "type": "uint256"
            },
            {
              "internalType": "uint256",
              "name": "expiryTimestamp",
              "type": "uint256"
            },
            {
              "internalType": "enum IPolicyStorage.PolicyState",
              "name": "state",
              "type": "uint8"
            }
          ],
          "internalType": "struct IPolicyStorage.Policy",
          "name": "policy",
          "type": "tuple"
        }
      ],
      "name": "addPolicy",
      "outputs": [
        {
          "internalType": "uint256",
          "name": "policyId",
          "type": "uint256"
        }
      ],
      "stateMutability": "nonpayable",
      "type": "function"
    },
    {
      "inputs": [
        {
          "internalType": "address",
          "name": "",
          "type": "address"
        }
      ],
      "name": "authorizedWriters",
      "outputs": [
        {
          "internalType": "bool",
          "name": "",
          "type": "bool"
        }
      ],
      "stateMutability": "view",
      "type": "function"
    },
    {
      "inputs": [],
      "name": "getConfig",
      "outputs": [
        {
          "components": [
            {
              "internalType": "uint16",
              "name": "maxUpsideShareBps",
              "type": "uint16"
            },
            {
              "internalType": "uint16",
              "name": "minUpsideShareBps",
              "type": "uint16"
            },
            {
              "internalType": "uint16",
              "name": "maxPayoutBps",
              "type": "uint16"
            },
            {
              "internalType": "uint16",
              "name": "minPayoutBps",
              "type": "uint16"
            },
            {
              "internalType": "uint256",
              "name": "minDuration",
              "type": "uint256"
            },
            {
              "internalType": "uint256",
              "name": "maxDuration",
              "type": "uint256"
            },
            {
              "internalType": "uint16",
              "name": "platformFeeBps",
              "type": "uint16"
            }
          ],
          "internalType": "struct IPolicyStorage.Config",
          "name": "",
          "type": "tuple"
        }
      ],
      "stateMutability": "view",
      "type": "function"
    },
    {
      "inputs": [],
      "name": "getNextPolicyId",
      "outputs": [
        {
          "internalType": "uint256",
          "name": "",
          "type": "uint256"
        }
      ],
      "stateMutability": "view",
      "type": "function"
    },
    {
      "inputs": [
        {
          "internalType": "uint256",
          "name": "policyId",
          "type": "uint256"
        }
      ],
      "name": "getPolicy",
      "outputs": [
        {
          "components": [
            {
              "internalType": "address",
              "name": "seller",
              "type": "address"
            },
            {
              "internalType": "address",
              "name": "buyer",
              "type": "address"
            },
            {
              "internalType": "contract IERC20",
              "name": "token",
              "type": "address"
            },
            {
              "internalType": "string",
              "name": "tokenSymbol",
              "type": "string"
            },
            {
              "internalType": "uint256",
              "name": "amount",
              "type": "uint256"
            },
            {
              "internalType": "contract IERC20",
              "name": "payoutToken",
              "type": "address"
            },
            {
              "internalType": "uint256",
              "name": "payoutAmount",
              "type": "uint256"
            },
            {
              "internalType": "uint256",
              "name": "duration",
              "type": "uint256"
            },
            {
              "internalType": "uint16",
              "name": "upsideShareBps",
              "type": "uint16"
            },
            {
              "internalType": "uint256",
              "name": "entryPrice",
              "type": "uint256"
            },
            {
              "internalType": "uint256",
              "name": "startTimestamp",
              "type": "uint256"
            },
            {
              "internalType": "uint256",
              "name": "expiryTimestamp",
              "type": "uint256"
            },
            {
              "internalType": "enum IPolicyStorage.PolicyState",
              "name": "state",
              "type": "uint8"
            }
          ],
          "internalType": "struct IPolicyStorage.Policy",
          "name": "",
          "type": "tuple"
        }
      ],
      "stateMutability": "view",
      "type": "function"
    },
    {
      "inputs": [],
      "name": "incrementPolicyId",
      "outputs": [
        {
          "internalType": "uint256",
          "name": "",
          "type": "uint256"
        }
      ],
      "stateMutability": "nonpayable",
      "type": "function"
    },
    {
      "inputs": [],
      "name": "owner",
      "outputs": [
        {
          "internalType": "address",
          "name": "",
          "type": "address"
        }
      ],
      "stateMutability": "view",
      "type": "function"
    },
    {
      "inputs": [],
      "name": "renounceOwnership",
      "outputs": [],
      "stateMutability": "nonpayable",
      "type": "function"
    },
    {
      "inputs": [
        {
          "components": [
            {
              "internalType": "uint16",
              "name": "maxUpsideShareBps",
              "type": "uint16"
            },
            {
              "internalType": "uint16",
              "name": "minUpsideShareBps",
              "type": "uint16"
            },
            {
              "internalType": "uint16",
              "name": "maxPayoutBps",
              "type": "uint16"
            },
            {
              "internalType": "uint16",
              "name": "minPayoutBps",
              "type": "uint16"
            },
            {
              "internalType": "uint256",
              "name": "minDuration",
              "type": "uint256"
            },
            {
              "internalType": "uint256",
              "name": "maxDuration",
              "type": "uint256"
            },
            {
              "internalType": "uint16",
              "name": "platformFeeBps",
              "type": "uint16"
            }
          ],
          "internalType": "struct IPolicyStorage.Config",
          "name": "_config",
          "type": "tuple"
        }
      ],
      "name": "setConfig",
      "outputs": [],
      "stateMutability": "nonpayable",
      "type": "function"
    },
    {
      "inputs": [
        {
          "internalType": "uint256",
          "name": "policyId",
          "type": "uint256"
        },
        {
          "components": [
            {
              "internalType": "address",
              "name": "seller",
              "type": "address"
            },
            {
              "internalType": "address",
              "name": "buyer",
              "type": "address"
            },
            {
              "internalType": "contract IERC20",
              "name": "token",
              "type": "address"
            },
            {
              "internalType": "string",
              "name": "tokenSymbol",
              "type": "string"
            },
            {
              "internalType": "uint256",
              "name": "amount",
              "type": "uint256"
            },
            {
              "internalType": "contract IERC20",
              "name": "payoutToken",
              "type": "address"
            },
            {
              "internalType": "uint256",
              "name": "payoutAmount",
              "type": "uint256"
            },
            {
              "internalType": "uint256",
              "name": "duration",
              "type": "uint256"
            },
            {
              "internalType": "uint16",
              "name": "upsideShareBps",
              "type": "uint16"
            },
            {
              "internalType": "uint256",
              "name": "entryPrice",
              "type": "uint256"
            },
            {
              "internalType": "uint256",
              "name": "startTimestamp",
              "type": "uint256"
            },
            {
              "internalType": "uint256",
              "name": "expiryTimestamp",
              "type": "uint256"
            },
            {
              "internalType": "enum IPolicyStorage.PolicyState",
              "name": "state",
              "type": "uint8"
            }
          ],
          "internalType": "struct IPolicyStorage.Policy",
          "name": "policy",
          "type": "tuple"
        }
      ],
      "name": "setPolicy",
      "outputs": [],
      "stateMutability": "nonpayable",
      "type": "function"
    },
    {
      "inputs": [
        {
          "internalType": "address",
          "name": "writer",
          "type": "address"
        },
        {
          "internalType": "bool",
          "name": "authorized",
          "type": "bool"
        }
      ],
      "name": "setWriterAuthorization",
      "outputs": [],
      "stateMutability": "nonpayable",
      "type": "function"
    },
    {
      "inputs": [
        {
          "internalType": "address",
          "name": "newOwner",
          "type": "address"
        }
      ],
      "name": "transferOwnership",
      "outputs": [],
      "stateMutability": "nonpayable",
      "type": "function"
    }
  ],
  "bytecode": "0x60806040523461016957604051601f61153238819003918201601f19168301916001600160401b038311848410176101535780849260e094604052833981010312610169576040519060e08201906001600160401b038211838310176101535761ffff9260c0926040526100728261016e565b8082526100816020840161016e565b9081602084015265ffff0000000061009b6040860161016e565b91826040860152876100af6060880161016e565b918260608801526080880151968760808201526100d88a60a08b01519a8b60a08501520161016e565b998a9101526100e63361017d565b6001600655168819600254161760025563ffff000067ffff0000000000006002549260301b169460101b169067ffffffffffff00001916179160201b1617176002556003556004551661ffff1960055416176005556101443361017d565b60405161136d90816101c58239f35b634e487b7160e01b600052604160045260246000fd5b600080fd5b519061ffff8216820361016957565b600080546001600160a01b039283166001600160a01b03198216811783559216907f8be0079c531659141344cd1fd0a4f28419497f9722a3daafe3b4186f6b6457e09080a356fe608080604052600436101561001357600080fd5b60003560e01c9081630aeac3a4146110a5575080632b07fce314610db1578063526241a814610d725780636505d95814610aae578063715018a614610a5557806383994f3f146107335780638da5cb5b1461070c578063b99c96c214610383578063c3f909d41461028b578063d888789e14610205578063f2fde38b146101285763fe023b5f146100a357600080fd5b34610123576040366003190112610123576100bc6110c0565b602435908115158092036101235760206001600160a01b037fa356cd9fa06f93ff3064cd1edfea27d8e05c272871977892da10bbcedf2dde2e926100fe6112df565b16928360005260078252604060002060ff1981541660ff8316179055604051908152a2005b600080fd5b34610123576020366003190112610123576001600160a01b036101496110c0565b6101516112df565b16801561019b576001600160a01b03600054826001600160a01b0319821617600055167f8be0079c531659141344cd1fd0a4f28419497f9722a3daafe3b4186f6b6457e0600080a3005b608460405162461bcd60e51b815260206004820152602660248201527f4f776e61626c653a206e6577206f776e657220697320746865207a65726f206160448201527f64647265737300000000000000000000000000000000000000000000000000006064820152fd5b346101235760003660031901126101235733600052600760205260ff604060002054161580610276575b61024c576020600654610241816112ba565b600655604051908152f35b7f82b429000000000000000000000000000000000000000000000000000000000060005260046000fd5b506001600160a01b036000541633141561022f565b3461012357600036600319011261012357600060c06040516102ac81611107565b8281528260208201528260408201528260608201528260808201528260a0820152015261037f6040516102de81611107565b61ffff6002548181168352818160101c166020840152818160201c16604084015260301c166060820152600354608082015260045460a082015261ffff6005541660c08201526040519182918291909160c061ffff8160e08401958281511685528260208201511660208601528260408201511660408601528260608201511660608601526080810151608086015260a081015160a0860152015116910152565b0390f35b346101235760e03660031901126101235760006040516103a281611107565b60043561ffff8116810361070857815260243561ffff8116810361070857602082019081526044359161ffff8316830361070457604081019283526064359161ffff83168303610700576060820192835260808201608435815260a0830160a435815260c4359161ffff831683036106fc5760c085019283526104236112df565b61271061ffff865116116106b85761ffff84511661ffff865116106106745761271061ffff885116116106305761ffff86511661ffff885116106105ec5780518251106105a8576103e861ffff84511611610564577f6c302eca0c13979ba6555f6527d3db1ee4e1234d4270a9f83a6677d8f1d8fe959661055e9661ffff958688511687196002541617600255519163ffff000067ffff00000000000065ffff00000000600254935160201b16935160301b169360101b169067ffffffffffff000019161717176002555160035551600455511661ffff1960055416176005556040519182918291909160c061ffff8160e08401958281511685528260208201511660208601528260408201511660408601528260608201511660608601526080810151608086015260a081015160a0860152015116910152565b0390a180f35b606460405162461bcd60e51b815260206004820152600c60248201527f46656520746f6f206869676800000000000000000000000000000000000000006044820152fd5b606460405162461bcd60e51b815260206004820152601660248201527f496e76616c6964206475726174696f6e2072616e6765000000000000000000006044820152fd5b606460405162461bcd60e51b815260206004820152601460248201527f496e76616c6964207061796f75742072616e67650000000000000000000000006044820152fd5b606460405162461bcd60e51b815260206004820152601260248201527f496e76616c6964206d6178207061796f757400000000000000000000000000006044820152fd5b606460405162461bcd60e51b815260206004820152601a60248201527f496e76616c6964207570736964652073686172652072616e67650000000000006044820152fd5b606460405162461bcd60e51b815260206004820152601860248201527f496e76616c6964206d61782075707369646520736861726500000000000000006044820152fd5b8780fd5b8480fd5b8380fd5b8280fd5b346101235760003660031901126101235760206001600160a01b0360005416604051908152f35b346101235760403660031901126101235760043560243567ffffffffffffffff811161012357610767903690600401611145565b9033600052600760205260ff604060002054161580610a40575b61024c5780158015610a34575b610a0a5760005260016020526040600020906001600160a01b0380825116166001600160a01b03198354161782556001600160a01b036020820151166001600160a01b036001840191166001600160a01b03198254161790556001600160a01b036040820151166001600160a01b036002840191166001600160a01b03198254161790556003820191606082015192835167ffffffffffffffff81116109f4576108388254611280565b601f81116109ac575b506020601f821160011461093e579080600c9493926101809697600092610933575b50508160011b916000199060031b1c19161790555b608084015160048201556001600160a01b0360a0850151166001600160a01b036005830191166001600160a01b031982541617905560c0840151600682015560e0840151600782015561ffff6101008501511661ffff60088301911661ffff198254161790556101208401516009820155610140840151600a820155610160840151600b82015501910151600481101561091d5760ff80198354169116179055600080f35b634e487b7160e01b600052602160045260246000fd5b015190508780610863565b601f1982169583600052816000209660005b8181106109945750966001928492600c979695610180999a1061097b575b505050811b019055610878565b015160001960f88460031b161c1916905587808061096e565b83830151895560019098019760209384019301610950565b826000526020600020601f830160051c810191602084106109ea575b601f0160051c01905b8181106109de5750610841565b600081556001016109d1565b90915081906109c8565b634e487b7160e01b600052604160045260246000fd5b7f6a0034090000000000000000000000000000000000000000000000000000000060005260046000fd5b5060065481101561078e565b506001600160a01b0360005416331415610781565b3461012357600036600319011261012357610a6e6112df565b60006001600160a01b0381546001600160a01b031981168355167f8be0079c531659141344cd1fd0a4f28419497f9722a3daafe3b4186f6b6457e08280a3005b346101235760203660031901126101235760043567ffffffffffffffff811161012357610adf903690600401611145565b33600052600760205260ff604060002054161580610d5d575b61024c57600654610b08816112ba565b60065580600052600160205260406000206001600160a01b0380845116166001600160a01b03198254161781556001600160a01b036020840151166001600160a01b036001830191166001600160a01b03198254161790556001600160a01b036040840151166001600160a01b036002830191166001600160a01b031982541617905560038101606084015180519067ffffffffffffffff82116109f457610bb08354611280565b601f8111610d15575b50602090601f8311600114610ca7579180600c94926101809694600092610c9c575b50508160011b916000199060031b1c19161790555b608085015160048201556001600160a01b0360a0860151166001600160a01b036005830191166001600160a01b031982541617905560c0850151600682015560e0850151600782015561ffff6101008601511661ffff60088301911661ffff198254161790556101208501516009820155610140850151600a820155610160850151600b8201550192015191600483101561091d5760209260ff80198354169116179055604051908152f35b015190508880610bdb565b90601f1983169184600052816000209260005b818110610cfd57509260019285926101809896600c989610610ce4575b505050811b019055610bf0565b015160001960f88460031b161c19169055888080610cd7565b92936020600181928786015181550195019301610cba565b836000526020600020601f840160051c81019160208510610d53575b601f0160051c01905b818110610d475750610bb9565b60008155600101610d3a565b9091508190610d31565b506001600160a01b0360005416331415610af8565b34610123576020366003190112610123576001600160a01b03610d936110c0565b166000526007602052602060ff604060002054166040519015158152f35b34610123576020366003190112610123576004356000610180604051610dd6816110ea565b8281528260208201528260408201526060808201528260808201528260a08201528260c08201528260e082015282610100820152826101208201528261014082015282610160820152015280158015611099575b610a0a5760005260016020526040600020604051610e47816110ea565b6001600160a01b0382541681526001600160a01b03600183015416602082019081526001600160a01b0360028401541690604083019182528260038501946040518096600090805490610e9982611280565b80855291600181169081156110745750600114611030575b505090610ebf910387611123565b60608201958652600481015493608083019485526001600160a01b036005830154169660a08401978852600683015460c0850190815260078401549060e0860191825261ffff600886015416926101008701938452600986015494610120880195865260ff600c600a890154986101408b01998a52610160600b8201549b019a8b52015416986101808c0199600481101561091d578a526040519b60208d52516001600160a01b031660208d0152516001600160a01b031660408c0152516001600160a01b031660608b0152519960808a016101a090528a5198896101c08c015260005b8a811061101a575060008b8b016101e001525160a08b0152516001600160a01b031660c08a01525160e0890152516101008801525161ffff1661012087015251610140860152516101608501525161018084015251600481101561091d576101a0830152601f01601f191681018190036101e00190f35b6020818e018101516101e08e8401015201610fa3565b6000908152602081209092505b8183106110545750508101602001610ebf89610eb1565b6001919495506020929350805483858c010152019101869392889261103d565b9050610ebf949350602092915060ff191682840152151560051b820101909189610eb1565b50600654811015610e2a565b34610123576000366003190112610123576020906006548152f35b600435906001600160a01b038216820361012357565b35906001600160a01b038216820361012357565b6101a0810190811067ffffffffffffffff8211176109f457604052565b60e0810190811067ffffffffffffffff8211176109f457604052565b90601f8019910116810190811067ffffffffffffffff8211176109f457604052565b9190916101a0818403126101235760405190611160826110ea565b819361116b826110d6565b8352611179602083016110d6565b602084015261118a604083016110d6565b6040840152606082013567ffffffffffffffff811161012357820181601f820112156101235780359067ffffffffffffffff82116109f457604051926111da601f8401601f191660200185611123565b8284526020838301011161012357816000926020809301838601378301015260608301526080810135608083015261121460a082016110d6565b60a083015260c081013560c083015260e081013560e08301526101008101359061ffff8216820361012357610180916101008401526101208101356101208401526101408101356101408401526101608101356101608401520135906004821015610123576101800152565b90600182811c921680156112b0575b602083101461129a57565b634e487b7160e01b600052602260045260246000fd5b91607f169161128f565b60001981146112c95760010190565b634e487b7160e01b600052601160045260246000fd5b6001600160a01b036000541633036112f357565b606460405162461bcd60e51b815260206004820152602060248201527f4f776e61626c653a2063616c6c6572206973206e6f7420746865206f776e65726044820152fdfea26469706673582212208298ba210942f67af8b4dc4580a1e1516d10659394c4fb34baedbc390742b1ec64736f6c634300081c0033",
  "linkReferences": {},
  "deployedLinkReferences": {}
}