{
  "_format": "hh-sol-artifact-1",
  "contractName": "RedStonePriceOracle",
  "sourceName": "contracts/FOMOInsurance.sol",
  "abi": [
    {
      "inputs": [],
      "stateMutability": "nonpayable",
      "type": "constructor"
    },
    {
      "inputs": [],
      "name": "CalldataMustHaveValidPayload",
      "type": "error"
    },
    {
      "inputs": [],
      "name": "CalldataOverOrUnderFlow",
      "type": "error"
    },
    {
      "inputs": [],
      "name": "CanNotPickMedianOfEmptyArray",
      "type": "error"
    },
    {
      "inputs": [],
      "name": "DataPackageTimestampMustNotBeZero",
      "type": "error"
    },
    {
      "inputs": [],
      "name": "DataPackageTimestampsMustBeEqual",
      "type": "error"
    },
    {
      "inputs": [],
      "name": "DataTimestampCannotBeZero",
      "type": "error"
    },
    {
      "inputs": [],
      "name": "EachSignerMustProvideTheSameValue",
      "type": "error"
    },
    {
      "inputs": [],
      "name": "EmptyCalldataPointersArr",
      "type": "error"
    },
    {
      "inputs": [],
      "name": "GetDataServiceIdNotImplemented",
      "type": "error"
    },
    {
      "inputs": [],
      "name": "IncorrectUnsignedMetadataSize",
      "type": "error"
    },
    {
      "inputs": [
        {
          "internalType": "uint256",
          "name": "receivedSignersCount",
          "type": "uint256"
        },
        {
          "internalType": "uint256",
          "name": "requiredSignersCount",
          "type": "uint256"
        }
      ],
      "name": "InsufficientNumberOfUniqueSigners",
      "type": "error"
    },
    {
      "inputs": [],
      "name": "InvalidCalldataPointer",
      "type": "error"
    },
    {
      "inputs": [
        {
          "internalType": "bytes32",
          "name": "signedHash",
          "type": "bytes32"
        }
      ],
      "name": "InvalidSignature",
      "type": "error"
    },
    {
      "inputs": [
        {
          "internalType": "string",
          "name": "symbol",
          "type": "string"
        }
      ],
      "name": "PriceNotAvailable",
      "type": "error"
    },
    {
      "inputs": [],
      "name": "RedstonePayloadMustHaveAtLeastOneDataPackage",
      "type": "error"
    },
    {
      "inputs": [
        {
          "internalType": "address",
          "name": "receivedSigner",
          "type": "address"
        }
      ],
      "name": "SignerNotAuthorised",
      "type": "error"
    },
    {
      "inputs": [
        {
          "internalType": "uint256",
          "name": "receivedTimestampSeconds",
          "type": "uint256"
        },
        {
          "internalType": "uint256",
          "name": "blockTimestamp",
          "type": "uint256"
        }
      ],
      "name": "TimestampFromTooLongFuture",
      "type": "error"
    },
    {
      "inputs": [
        {
          "internalType": "uint256",
          "name": "receivedTimestampSeconds",
          "type": "uint256"
        },
        {
          "internalType": "uint256",
          "name": "blockTimestamp",
          "type": "uint256"
        }
      ],
      "name": "TimestampIsTooOld",
      "type": "error"
    },
    {
      "inputs": [],
      "name": "TimestampsMustBeEqual",
      "type": "error"
    },
    {
      "inputs": [
        {
          "internalType": "uint256",
          "name": "valueByteSize",
          "type": "uint256"
        }
      ],
      "name": "TooLargeValueByteSize",
      "type": "error"
    },
    {
      "inputs": [
        {
          "internalType": "string",
          "name": "symbol",
          "type": "string"
        }
      ],
      "name": "UnsupportedSymbol",
      "type": "error"
    },
    {
      "anonymous": false,
      "inputs": [
        {
          "indexed": true,
          "internalType": "address",
          "name": "previousOwner",
          "type": "address"
        },
        {
          "indexed": true,
          "internalType": "address",
          "name": "newOwner",
          "type": "address"
        }
      ],
      "name": "OwnershipTransferred",
      "type": "event"
    },
    {
      "anonymous": false,
      "inputs": [
        {
          "indexed": false,
          "internalType": "string",
          "name": "symbol",
          "type": "string"
        },
        {
          "indexed": false,
          "internalType": "uint256",
          "name": "price",
          "type": "uint256"
        }
      ],
      "name": "PriceRequested",
      "type": "event"
    },
    {
      "anonymous": false,
      "inputs": [
        {
          "indexed": false,
          "internalType": "string",
          "name": "symbol",
          "type": "string"
        },
        {
          "indexed": false,
          "internalType": "bool",
          "name": "supported",
          "type": "bool"
        }
      ],
      "name": "SymbolSupportUpdated",
      "type": "event"
    },
    {
      "inputs": [
        {
          "internalType": "string",
          "name": "symbol",
          "type": "string"
        }
      ],
      "name": "addSupportedSymbol",
      "outputs": [],
      "stateMutability": "nonpayable",
      "type": "function"
    },
    {
      "inputs": [
        {
          "internalType": "uint256[]",
          "name": "values",
          "type": "uint256[]"
        }
      ],
      "name": "aggregateValues",
      "outputs": [
        {
          "internalType": "uint256",
          "name": "",
          "type": "uint256"
        }
      ],
      "stateMutability": "view",
      "type": "function"
    },
    {
      "inputs": [],
      "name": "extractTimestampsAndAssertAllAreEqual",
      "outputs": [
        {
          "internalType": "uint256",
          "name": "extractedTimestamp",
          "type": "uint256"
        }
      ],
      "stateMutability": "pure",
      "type": "function"
    },
    {
      "inputs": [
        {
          "internalType": "address",
          "name": "signerAddress",
          "type": "address"
        }
      ],
      "name": "getAuthorisedSignerIndex",
      "outputs": [
        {
          "internalType": "uint8",
          "name": "",
          "type": "uint8"
        }
      ],
      "stateMutability": "view",
      "type": "function"
    },
    {
      "inputs": [],
      "name": "getDataServiceId",
      "outputs": [
        {
          "internalType": "string",
          "name": "",
          "type": "string"
        }
      ],
      "stateMutability": "view",
      "type": "function"
    },
    {
      "inputs": [
        {
          "internalType": "string",
          "name": "tokenSymbol",
          "type": "string"
        }
      ],
      "name": "getPrice",
      "outputs": [
        {
          "internalType": "uint256",
          "name": "",
          "type": "uint256"
        }
      ],
      "stateMutability": "view",
      "type": "function"
    },
    {
      "inputs": [
        {
          "internalType": "string[]",
          "name": "tokenSymbols",
          "type": "string[]"
        }
      ],
      "name": "getPrices",
      "outputs": [
        {
          "internalType": "uint256[]",
          "name": "prices",
          "type": "uint256[]"
        }
      ],
      "stateMutability": "view",
      "type": "function"
    },
    {
      "inputs": [],
      "name": "getUniqueSignersThreshold",
      "outputs": [
        {
          "internalType": "uint8",
          "name": "",
          "type": "uint8"
        }
      ],
      "stateMutability": "view",
      "type": "function"
    },
    {
      "inputs": [],
      "name": "isHealthy",
      "outputs": [
        {
          "internalType": "bool",
          "name": "healthy",
          "type": "bool"
        }
      ],
      "stateMutability": "view",
      "type": "function"
    },
    {
      "inputs": [
        {
          "internalType": "string",
          "name": "symbol",
          "type": "string"
        }
      ],
      "name": "isSymbolSupported",
      "outputs": [
        {
          "internalType": "bool",
          "name": "supported",
          "type": "bool"
        }
      ],
      "stateMutability": "view",
      "type": "function"
    },
    {
      "inputs": [],
      "name": "owner",
      "outputs": [
        {
          "internalType": "address",
          "name": "",
          "type": "address"
        }
      ],
      "stateMutability": "view",
      "type": "function"
    },
    {
      "inputs": [
        {
          "internalType": "string",
          "name": "symbol",
          "type": "string"
        }
      ],
      "name": "removeSupportedSymbol",
      "outputs": [],
      "stateMutability": "nonpayable",
      "type": "function"
    },
    {
      "inputs": [],
      "name": "renounceOwnership",
      "outputs": [],
      "stateMutability": "nonpayable",
      "type": "function"
    },
    {
      "inputs": [
        {
          "internalType": "string",
          "name": "",
          "type": "string"
        }
      ],
      "name": "supportedSymbols",
      "outputs": [
        {
          "internalType": "bool",
          "name": "",
          "type": "bool"
        }
      ],
      "stateMutability": "view",
      "type": "function"
    },
    {
      "inputs": [
        {
          "internalType": "address",
          "name": "newOwner",
          "type": "address"
        }
      ],
      "name": "transferOwnership",
      "outputs": [],
      "stateMutability": "nonpayable",
      "type": "function"
    },
    {
      "inputs": [
        {
          "internalType": "uint256",
          "name": "receivedTimestampMilliseconds",
          "type": "uint256"
        }
      ],
      "name": "validateTimestamp",
      "outputs": [],
      "stateMutability": "view",
      "type": "function"
    }
  ],
  "bytecode": "0x608080604052346100d157602390610016336100d6565b61001f336100d6565b6208aa8960eb1b81526001600382015220600160ff1982541617905560236040516242544360e81b81526001600382015220600160ff198254161790556024604051635553444360e01b81526001600482015220600160ff198254161790556024604051631554d11560e21b81526001600482015220600160ff198254161790556024604051630ae8aa8960e31b81526001600482015220600160ff1982541617905560405161152a908161011e8239f35b600080fd5b600080546001600160a01b039283166001600160a01b03198216811783559216907f8be0079c531659141344cd1fd0a4f28419497f9722a3daafe3b4186f6b6457e09080a356fe6080604052600436101561001257600080fd5b60003560e01c8063013274d91461011257806314eac4c11461010d57806326f875b01461010d5780633209d6e4146101085780633ce142f514610103578063524f3889146100fe57806355a547d5146100f9578063715018a6146100f45780638da5cb5b146100ef578063b24ebfcc146100ea578063c274583a146100e5578063e4020804146100e0578063f2fde38b146100db578063f50b2efe146100d6578063f90c4924146100d15763fa1402f8146100cc57600080fd5b61090a565b6108ee565b61083f565b610760565b61073b565b6106dc565b61061c565b6105f5565b61058f565b61046d565b61040a565b6103e7565b61030a565b610249565b6101de565b634e487b7160e01b600052604160045260246000fd5b90601f8019910116810190811067ffffffffffffffff82111761014f57604052565b610117565b81601f820112156101ab5780359067ffffffffffffffff821161014f5760405192610189601f8401601f19166020018561012d565b828452602083830101116101ab57816000926020809301838601378301015290565b600080fd5b60206003198201126101ab576004359067ffffffffffffffff82116101ab576101db91600401610154565b90565b346101ab577f67ac8ea1697775ec69b5cd60010469bf1b9de5e16fc2beeeef87c3f31a234e0361023d610210366101b0565b610218610cde565b61022181610292565b60ff1981541690556040519182916040835260408301906106b7565b600060208301520390a1005b346101ab57602060ff61026361025e366101b0565b610292565b54166040519015158152f35b60005b8381106102825750506000910152565b8181015183820152602001610272565b60206102ab91816040519382858094519384920161026f565b8101600181520301902090565b67ffffffffffffffff811161014f5760051b60200190565b602060408183019282815284518094520192019060005b8181106102f45750505090565b82518452602093840193909201916001016102e7565b346101ab5760203660031901126101ab5760043567ffffffffffffffff81116101ab57366023820112156101ab578060040135610346816102b8565b91610354604051938461012d565b8183526024602084019260051b820101903682116101ab5760248101925b8284106103955761039161038586610a2b565b604051918291826102d0565b0390f35b833567ffffffffffffffff81116101ab576020916103ba839260243691870101610154565b815201930192610372565b60209060031901126101ab576004356001600160a01b03811681036101ab5790565b346101ab5760206103ff6103fa366103c5565b610abb565b60ff60405191168152f35b346101ab57610418366101b0565b60ff61042382610292565b5416156104455761043d610438602092610a08565b610d36565b604051908152f35b610469906040519182916388e0837d60e01b835260206004840181815201906106b7565b0390fd5b346101ab5760003660031901126101ab57600061ffff61049361048e610e91565b610f66565b911690811561056557919060005b8181106104b357604051838152602090f35b90916104be84610fa2565b9065ffffffffffff6104d86104d287610bb9565b36610c29565b351690811561053b57806104fd57506001916104f49195610c0d565b939291016104a1565b80959103610511576001916104f491610c0d565b7fd9d1f4650000000000000000000000000000000000000000000000000000000060005260046000fd5b7f336dc9d00000000000000000000000000000000000000000000000000000000060005260046000fd5b7f8552ff3c0000000000000000000000000000000000000000000000000000000060005260046000fd5b346101ab5760003660031901126101ab576105a8610cde565b60006001600160a01b03815473ffffffffffffffffffffffffffffffffffffffff1981168355167f8be0079c531659141344cd1fd0a4f28419497f9722a3daafe3b4186f6b6457e08280a3005b346101ab5760003660031901126101ab5760206001600160a01b0360005416604051908152f35b346101ab5760203660031901126101ab5760043567ffffffffffffffff81116101ab57366023820112156101ab57806004013590610659826102b8565b91610667604051938461012d565b8083526024602084019160051b830101913683116101ab57602401905b8282106106a75761039161069785611045565b6040519081529081906020820190565b8135815260209182019101610684565b906020916106d08151809281855285808601910161026f565b601f01601f1916010190565b346101ab5760003660031901126101ab5761039160408051906106ff818361012d565b601582527f72656473746f6e652d7072696d6172792d70726f6400000000000000000000006020830152519182916020835260208301906106b7565b346101ab5760003660031901126101ab576020610756610c36565b6040519015158152f35b346101ab576001600160a01b03610776366103c5565b61077e610cde565b1680156107d5576001600160a01b036000548273ffffffffffffffffffffffffffffffffffffffff19821617600055167f8be0079c531659141344cd1fd0a4f28419497f9722a3daafe3b4186f6b6457e0600080a3005b608460405162461bcd60e51b815260206004820152602660248201527f4f776e61626c653a206e6577206f776e657220697320746865207a65726f206160448201527f64647265737300000000000000000000000000000000000000000000000000006064820152fd5b346101ab5760203660031901126101ab576103e8600435048042106000146108aa574281038181116108a557603c1061087457005b7fb6b0916d000000000000000000000000000000000000000000000000000000006000526004524260245260446000fd5b610ba3565b8042034281116108a55760b4106108bd57005b7f0321d0b5000000000000000000000000000000000000000000000000000000006000526004524260245260446000fd5b346101ab5760003660031901126101ab57602060405160038152f35b346101ab577f67ac8ea1697775ec69b5cd60010469bf1b9de5e16fc2beeeef87c3f31a234e0361096c61093c366101b0565b610944610cde565b61094d81610292565b600160ff198254161790556040519182916040835260408301906106b7565b600160208301520390a1005b60405160809190610989838261012d565b6003815291601f1901366020840137565b906109a4826102b8565b6109b1604051918261012d565b82815280926109c2601f19916102b8565b0190602036910137565b634e487b7160e01b600052603260045260246000fd5b8051156109ef5760200190565b6109cc565b80518210156109ef5760209160051b010190565b602081519101519060208110610a1c575090565b6000199060200360031b1b1690565b90610a36825161099a565b60005b8351811015610ab65760ff610a57610a5183876109f4565b51610292565b541615610a885780610a77610438610a71600194886109f4565b51610a08565b610a8182856109f4565b5201610a39565b610a9561046991856109f4565b516040519182916388e0837d60e01b835260206004840181815201906106b7565b509150565b6001600160a01b038116738bb8f32df04c8b654987daaed53d6b6091e3b7748103610ae7575050600090565b73deb22f54738d54976c4c0fe5ce6d408e40d884998103610b09575050600190565b7351ce04be4b3e32572c4ec9135221d0691ba7d2028103610b2b575050600290565b73dd682daec5a90dd295d14da4b0bec9281017b5be8103610b4d575050600390565b739c5ae89c4af6aa32ce58588dbaf90d18a855b6de03610b6d5750600490565b7fec459bc0000000000000000000000000000000000000000000000000000000006000526001600160a01b031660045260246000fd5b634e487b7160e01b600052601160045260246000fd5b90606882018092116108a557565b90600282018092116108a557565b90602082018092116108a557565b90600d82018092116108a557565b90604182018092116108a557565b90604e82018092116108a557565b919082018092116108a557565b6000198101919082116108a557565b919082039182116108a557565b6040517f524f388900000000000000000000000000000000000000000000000000000000815260206004820152600360248201527f45544800000000000000000000000000000000000000000000000000000000006044820152602081606481305afa9081610caf575b50610caa57600090565b600190565b6020813d602011610cd6575b81610cc86020938361012d565b810103126101ab5751610ca0565b3d9150610cbb565b6001600160a01b03600054163303610cf257565b606460405162461bcd60e51b815260206004820152602060248201527f4f776e61626c653a2063616c6c6572206973206e6f7420746865206f776e65726044820152fd5b90604090815192610d47838561012d565b6001845260208401601f1984013682378451156109ef57526000610d6b845161099a565b610d75855161099a565b94610d8081516110f7565b9560005b8251811015610db457600190610d98610978565b610da2828b6109f4565b52610dad818a6109f4565b5001610d84565b509192939461ffff91610dc861048e610e91565b931693825191602060009301945b868410610e045750505050505050610df5610dfb91610e009495611382565b91610fcd565b6109e2565b5190565b610e11908b848a856111b9565b9390938015610e6757898103610e2f575b5085855260010192610dd6565b9098610e3d57976001610e22565b7f4cbc47420000000000000000000000000000000000000000000000000000000060005260046000fd5b7fdfb25a790000000000000000000000000000000000000000000000000000000060005260046000fd5b6602ed57011e0000601f19360135166602ed57011e000003610f3c5736602911610f125762ffffff60281936013516600381018091116108a557600981018091116108a55736610ee082610bc7565b11610ee85790565b7fc30a7bd70000000000000000000000000000000000000000000000000000000060005260046000fd5b7f5796f78a0000000000000000000000000000000000000000000000000000000060005260046000fd5b7fe7764c9e0000000000000000000000000000000000000000000000000000000060005260046000fd5b90602082018083116108a5573610610f125760028201918281116108a5573603601f1901359190565b818102929181159184041417156108a557565b610fab90611004565b602001806020116108a557610fbf91610f8f565b604e81018091116108a55790565b6103e89004804210600014610ff0574281038181116108a557603c106108745750565b8042034281116108a55760b4106108bd5750565b604181018082116108a55760618201106108a5573603906060198201913683116108a55760631901918083116108a5573562ffffff16913563ffffffff1690565b60028151146110d0578051156110a65761105e81611141565b805160011c815160011661109d576101db916110908261108961108361109795610c1a565b846109f4565b51926109f4565b5190610c0d565b60011c90565b610e00916109f4565b7f9e198af90000000000000000000000000000000000000000000000000000000060005260046000fd5b6110d9816109e2565b51908051600110156109ef576101db91604061109792015190610c0d565b90611101826102b8565b61110e604051918261012d565b828152809261111f601f19916102b8565b019060005b82811061113057505050565b806060602080938501015201611124565b805160051b810160209081019101805b82811061115d57505050565b815b81811061116f5750602001611151565b60209082518151808210611186575b50500161115f565b84528152388061117e565b60001981146108a55760010190565b9060405191818352602082840101604052602083013790565b90949392946111c784611004565b9390916111d385610bd5565b6111dd9084610f8f565b6111e690610be3565b976111f087610bb9565b6111fa9036610c29565b9880806112068a610bf1565b9061121091610c0d565b61121a9036610c29565b90611224916111a0565b6020012061123188610bf1565b61123a91611417565b61124390610abb565b60ff169661125090610bff565b966000945b80861061127257505050505050505065ffffffffffff9092351690565b919396999092949761128a8b61128f929b989b610c0d565b610bd5565b9561129a8b8861149e565b97909360005b8c5181101561136c576112b3818e6109f4565b5186146112c2576001016112a0565b90988a98969795506112de82959e956001959e9c9d949d6109f4565b516001891b81161580611358575b611302575b5050505b0195969594939096611255565b61134f91611325611313858a6109f4565b5161131e868c6109f4565b51906109f4565b52611339611333848a6109f4565b51611191565b611343848a6109f4565b5284891b1791896109f4565b523880806112f1565b506003611365848a6109f4565b51106112ec565b509750986001919a9896949593509a919a6112f5565b919061138e835161099a565b9060005b84518110156114105760036113a782846109f4565b51106113d457806113c36113bd600193886109f4565b51611045565b6113cd82866109f4565b5201611392565b6113dd916109f4565b517f2b13aef500000000000000000000000000000000000000000000000000000000600052600452600360245260446000fd5b5090925050565b919060006080602092360383604051918783526040810135851a82840152803560408401520135606082015282805260015afa1561149257600051916001600160a01b038316156114655750565b7f666b7cba0000000000000000000000000000000000000000000000000000000060005260045260246000fd5b6040513d6000823e3d90fd5b9190913603913683116108a55782359260218210156114c657602001359060200360031b1c90565b507fc000fc420000000000000000000000000000000000000000000000000000000060005260045260246000fdfea2646970667358221220fd667da3e4f16b703271c25ac1a9d33df8f3f1bc29acd29381e2242a41774b9864736f6c634300081c0033",
  "linkReferences": {},
  "deployedLinkReferences": {}
}