{
  "_format": "hh-sol-artifact-1",
  "contractName": "CalldataExtractor",
  "sourceName": "@redstone-finance/evm-connector/contracts/core/CalldataExtractor.sol",
  "abi": [
    {
      "inputs": [],
      "name": "CalldataMustHaveValidPayload",
      "type": "error"
    },
    {
      "inputs": [],
      "name": "CalldataOverOrUnderFlow",
      "type": "error"
    },
    {
      "inputs": [],
      "name": "DataPackageTimestampMustNotBeZero",
      "type": "error"
    },
    {
      "inputs": [],
      "name": "DataPackageTimestampsMustBeEqual",
      "type": "error"
    },
    {
      "inputs": [],
      "name": "DataTimestampCannotBeZero",
      "type": "error"
    },
    {
      "inputs": [],
      "name": "EachSignerMustProvideTheSameValue",
      "type": "error"
    },
    {
      "inputs": [],
      "name": "EmptyCalldataPointersArr",
      "type": "error"
    },
    {
      "inputs": [],
      "name": "IncorrectUnsignedMetadataSize",
      "type": "error"
    },
    {
      "inputs": [
        {
          "internalType": "uint256",
          "name": "receivedSignersCount",
          "type": "uint256"
        },
        {
          "internalType": "uint256",
          "name": "requiredSignersCount",
          "type": "uint256"
        }
      ],
      "name": "InsufficientNumberOfUniqueSigners",
      "type": "error"
    },
    {
      "inputs": [],
      "name": "InvalidCalldataPointer",
      "type": "error"
    },
    {
      "inputs": [],
      "name": "RedstonePayloadMustHaveAtLeastOneDataPackage",
      "type": "error"
    },
    {
      "inputs": [
        {
          "internalType": "address",
          "name": "receivedSigner",
          "type": "address"
        }
      ],
      "name": "SignerNotAuthorised",
      "type": "error"
    },
    {
      "inputs": [],
      "name": "TimestampsMustBeEqual",
      "type": "error"
    },
    {
      "inputs": [
        {
          "internalType": "uint256",
          "name": "valueByteSize",
          "type": "uint256"
        }
      ],
      "name": "TooLargeValueByteSize",
      "type": "error"
    },
    {
      "inputs": [],
      "name": "extractTimestampsAndAssertAllAreEqual",
      "outputs": [
        {
          "internalType": "uint256",
          "name": "extractedTimestamp",
          "type": "uint256"
        }
      ],
      "stateMutability": "pure",
      "type": "function"
    }
  ],
  "bytecode": "0x60808060405234601557610319908161001b8239f35b600080fdfe6080604052600436101561001257600080fd5b60003560e01c6355a547d51461002757600080fd5b346102d15760003660031901126102d15760006602ed57011e0000601f19360135166602ed57011e0000036102a7573660291161023d5762ffffff6028193601351690600382019182811161026757600c810180931161026757600e8101928381116102675736841161027d57602c820180911161026757361061023d5761ffff60009391602b199036030135169081156102155783905b8282106100d157602084604051908152f35b604181018082116102015760618201809111610201576100f190366102d6565b600219810194908086116101ed5762ffffff63ffffffff91351695351660200194856020116101ed5785810295818704149015171561020157604e8501851161020157606882018083116101ed5761015065ffffffffffff91366102d6565b35169081156101c5578061018d5750604e90945b820101809111610179576001909101906100bf565b602485634e487b7160e01b81526011600452fd5b8095910361019d57604e90610164565b6004867fd9d1f465000000000000000000000000000000000000000000000000000000008152fd5b6004877f336dc9d0000000000000000000000000000000000000000000000000000000008152fd5b602487634e487b7160e01b81526011600452fd5b602486634e487b7160e01b81526011600452fd5b6004847f8552ff3c000000000000000000000000000000000000000000000000000000008152fd5b7f5796f78a0000000000000000000000000000000000000000000000000000000060005260046000fd5b634e487b7160e01b600052601160045260246000fd5b7fc30a7bd70000000000000000000000000000000000000000000000000000000060005260046000fd5b7fe7764c9e0000000000000000000000000000000000000000000000000000000060005260046000fd5b600080fd5b919082039182116102675756fea2646970667358221220c6c37e10a46169f5ecc34de590df2473dc6588a96222d4481cf0949845dcafb464736f6c634300081c0033",
  "linkReferences": {},
  "deployedLinkReferences": {}
}